S01800004247323751464E34305F4146455F3156352E7333375B
S31508012000C00A0020FD77010815400308154003089A
S31508012010A9320308154003081540030815400308AB
S315080120201540030815400308154003081540030821
S3150801203015400308D0D403084B400308154003088C
S315080120401540030815400308154003081540030801
S3150801205015400308154003081540030815400308F1
S3150801206015400308154003081540030815400308E1
S315080120701540030815400308154003087938010877
S3150801208015400308154003081540030815400308C1
S3150801209015400308154003081540030815400308B1
S315080120A01540030815400308E1080308154003080D
S315080120B01540030815400308050A0308E109030842
S315080120C015400308154003082DE3020815400308C7
S315080120D06DED0208F9BF0308F5BF03085DE50208BF
S315080120E005C00308FDBF030845ED020801C0030842
S315080120F0ADED02087DC702081DEE020841C90208B6
S315080121001540030815400308154003081540030840
S315080121101540030815400308154003081540030830
S315080121201540030815400308154003081540030820
S315080121301540030815400308154003081540030810
S315080121401540030815400308154003080000000060
S31508012150013800D0FCE77047002370B5404C0546AE
S315080121608AB0E36318B1008823600BF083FE3D480B
S3150801217029F08DFA3C4E3D4B304633603C4B73603B
S3150801218024F09BFD0021304616F0BEFA32A3D3E9AE
S315080121900023A062C4E9062324F09AFDD4E90623A4
S315080121A019431043C4E90601CDE900014FF0FF3395
S315080121B04FF0FF32A06A29F0E5FA02224FF0FF310B
S315080121C0A06A29F0E4FA01200BF0D6FB4FF400735C
S315080121D000222849A06A29F02DFBB0F5007F38D1E5
S315080121E000239422CDE9073309933C23CDE9033231
S315080121F005939623A06A03A9069316F0A3FB35B3A4
S31508012200287C0BF0EFFF0546F0B9A06A29F0F3FB2D
S315080122100BF096FF0BF092FB20B14FF48070002172
S3150801222008F0A8FB0BF09AFB20B14FF400600021DF
S3150801223008F0A0FB24F00FFE012016F0B9FA0E4AA9
S315080122400E49A06A24F037FD28460AB070BDFF2062
S31508012250D7E70725F8E700BF0DD50155200000008F
S3150801226008180020690345EC2C280020FDD7010831
S315080122703C2800202C2600205F6C03089F6C03086D
S315080122802DE9F34708249C4E9C4F022034641EF026
S31508012290F7FD05213C649A4821F076FE802198488D
S315080122A021F072FE0121964821F06EFE0021944824
S315080122B021F06AFE01201EF0E3FD022034641EF0BF
S315080122C0DFFD07213C648E4821F05EFE00218C4823
S315080122D021F05AFE00218A4821F056FE002188483D
S315080122E021F052FE054601201EF0CAFD0220346483
S315080122F01EF0C6FD21463C64814821F045FE0021B9
S315080123007F4821F041FE00217D4821F03DFE002154
S315080123107B4821F039FE074601201EF0B1FD3464E1
S31508012320784E05EB0720338801339BB20E2B338099
S3150801233040F09380744B188000270824DFF8B88191
S3150801234001206E4D1EF09CFD0220C8F840401EF08B
S3150801235097FD04216A482C6421F016FE80216848FD
S3150801236021F012FE0121664821F00EFE0021644883
S3150801237021F00AFE05201EF083FD01201EF080FDD6
S31508012380B6F800A0C8F84040BAF10F0F60D15F4B0C
S31508012390B3F80090B9F1030F5AD1002648461E80BA
S315080123A01EF06EFD50462C641EF06AFDDFF878A11A
S315080123B03A21534821F0E8FDA021514821F0E4FDD6
S315080123C09AF800104E4821F0DFFD31464C4821F0BD
S315080123D0DBFD1E201EF054FD0220C8F840401EF009
S315080123E04FFD502146482C6421F0CEFD80214448FA
S315080123F021F0CAFD4946424821F0C6FD314640480A
S3150801240021F0C2FD1E201EF03BFD0220C8F8404007
S315080124101EF036FD3A213A482C6421F0B5FD80219B
S31508012420374821F0B1FD9AF80010354841F080018E
S3150801243021F0AAFD3146324821F0A6FD1E201EF0E4
S315080124401FFD0123C8F840402B671023C5F8203427
S3150801245000EE107A02B0BDE8F0877FF66DAF0F2364
S315080124602A4A3380138801339BB2022B01D8138081
S3150801247062E70324244B14801B88C01A1FF0C4FC8E
S3150801248000224FF07C531FF043FA19A3D3E9002326
S315080124901FF03EFA00221E4B1FF03AFA00221D4B8E
S315080124A01FF036FA00221C4B1FF032FA1FF016FDF8
S315080124B0074620461EF04AF988B1184C1849206883
S315080124C020F041FF2AF06DF82AF06CF838461FF023
S315080124D0ADFC02460B462068124920F034FF002362
S315080124E0042218461146CDE9003304F0DBFE24E741
S315080124F07D3F355EBA49F43F00D0035000E00350F2
S3150801250000C00550D4330020D2330020D033002038
S315080125100000594000804B400000903F842F002066
S31508012520F5D50308CD1C04082F0D00200348044BDC
S31508012530834202D0034B03B118477047981700200E
S315080125409817002000000000064B0749C91A891090
S3150801255048BF0131491003D0044B0BB10148184754
S31508012560704700BF98170020981700200000000048
S3150801257010B5064C237843B9FFF7D8FF044B13B1BE
S315080125800448AFF300800123237010BDE233002015
S3150801259000000000A41F040808B5054B1BB1054936
S315080125A00548AFF30080BDE80840FFF7CDBF00BF7F
S315080125B000000000681A0020A41F0408A3F5803A49
S315080125C0704700BF174B002B08BF134B9D46FFF7FB
S315080125D0F5FF00218B460F461348144A121A29F0B3
S315080125E0C6FD0E4B002B00D098470D4B002B00D093
S315080125F098470020002104000D000D48002802D04C
S315080126000C48AFF300801CF0E5FF2000290005F017
S315080126102FFF1CF013FE00BF000008000000000099
S3150801262000000000C00A002098170020FC34002092
S31508012630000000000000000008B5124BA822002186
S31508012640184629F094FD03220346026142610E48A9
S315080126500E4A98614FF48061DA61002219629A6222
S315080126605A62DA6218660A485866996609491A6703
S31508012670DA665A6711F8010D98540132102AF9D110
S3150801268008BD00BFF016002080D10308F012002013
S31508012690F00E002099D103082DE9F84FDFF8808064
S315080126A0824698F800308946532B164601D0FFF723
S315080126B0C3FF182707FB0A873D6FD7F86CB05D453E
S315080126C02BD9BC6E796E641BB44228BF3446484682
S315080126D02944224629F056FDBB6E2544AB4208BF64
S315080126E00025A144361BABEB050B5E4528BF5E46AC
S315080126F056B1182303FB0A83596E324629444846C4
S3150801270029F040FD3444354424B1182303FB0A88D3
S31508012710C8F870502046BDE8F88F0024E3E700BFEB
S31508012720F0160020F8B5182700FB0775124B0E4660
S315080127301D4407FB0033DB6A1446012B0AD0022B22
S3150801274014D023B928461FF0CDFC844208D90024A9
S315080127502046F8BD28461FF0C5FC844228BF04461A
S315080127602246314628461FF0C6FCF1E72846BDE851
S31508012770F8401FF0DBBC00BFF0160020F8B50B4B84
S3150801278004461B780D46532B164601D0FFF754FF16
S31508012790EFF311874FF0200181F31188324629465C
S315080127A02046FFF7BFFF87F31188F8BDF016002012
S315080127B02DE9F041164C1E4623780546532B8846CB
S315080127C0174601D0FFF738FF022D1DD8EFF3118CFC
S315080127D04FF0200181F3118865B1182005FB00032C
S315080127E044F80380E2180023576000FB054216628D
S315080127F093625362182303FB0544069BE3628CF339
S3150801280011880020BDE8F0814FF0FF30FAE700BFDC
S31508012810F01600202DE9F843154E1F463378054674
S31508012820532B8946904601D0FFF706FF022D1BD888
S31508012830EFF311824FF0200181F3118855B1182465
S31508012840002304FB0564C4F86090C4F86480A76695
S315080128502367E366182303FB0566089B736782F300
S3150801286011880020BDE8F8834FF0FF30FAE700BF72
S31508012870F016002010B50A46044619B1024B00218C
S315080128801B68984710BD00BFC00A00200E4B0340C5
S31508012890B3F1607F06D1B1F5885F14BF6FF086008A
S315080128A000207047B3F1707F0BD101F4E043B3F513
S315080128B0005F06D111F4E06F0CBF6FF086000020AF
S315080128C070476FF0860070470000C07F8A42F8B5EE
S315080128D006460C4600F0DB806F4922F4FF7323F0AD
S315080128E001038B420ED06D4B22F0FF01994209D0AC
S315080128F06B4822F47F7323F00303834202D0694BAA
S31508012900994228D1684B24F0FF0199420FD114F05E
S31508012910FF000BD0654B40F00070984240F0B9803B
S3150801292082EA0400FF288CBF00200120F8BD5B4B1A
S315080129309942ECD0A3F588539942E8D024F4FF7361
S3150801294023F00103B3F1062FE1D056488142DED0C8
S3150801295053498B42DBD004F0FE43B3F1A06F14D187
S3150801296002F0FE43B3F1A06F40F0938082EA0403BC
S3150801297033F47E1340F08D8014F40040D6D0C4F3AE
S315080129800540C2F305429042CDE7B3F1407F6AD1D3
S3150801299002F0FE43B3F1407F7BD182EA040535F4A8
S315080129A07E1576D131462046FFF770FF002870D193
S315080129B03F4B12F47C1703EA02031BD0B3F1607F85
S315080129C0C2F305473FD13B49D3B243F000738B426B
S315080129D03DD003F17E43043B0F2B01D83649CD5C2C
S315080129E014F47C1FC4F3054333D1BD4214BF002040
S315080129F001209BE7B3F1607F0DD12E49D3B243F095
S31508012A0000738B421DD003F17E43043B0F2BDAD8AA
S31508012A102A49CF5CD7E7B3F1707FE1D106F4E043E9
S31508012A20B3F5005F03D10127C6F302239F4006F4DD
S31508012A30E043B3F5005FD3D10125C6F302218D40EA
S31508012A40CEE71027BFE7B3F1707FC9D1EFE71025AD
S31508012A50C6E712F47C1F01D1AB4218D022047FF5D8
S31508012A6065AFBB425FE7B3F1106F12D124F01F6067
S31508012A7020F4702068B902F0FE43B3F1106F7FF4B9
S31508012A8055AF0F48104040F01060A042AEE7012054
S31508012A904CE700204AE700BF0002000600130006C3
S31508012AA0000400060009000600030006FF000002F4
S31508012AB00000C07F030000029AD103089AD10308D7
S31508012AC00000FFF62DE9F8431746002288461C4602
S31508012AD000F05AFA054688BBD8F80060B6F80090A7
S31508012AE009F4E043B3F5804FF36808BF27F00107FF
S31508012AF037EA03031AD10CB3254B24F0FF029A4295
S31508012B001FD114F0FF0304D0224A43F00073934205
S31508012B1032D0224648463169FFF7D8FE074668B9DA
S31508012B20224648467169FFF7D1FE70BB6FF08405EE
S31508012B3000233046C8F8003020F099F92846BDE848
S31508012B40F883154B9A42DCD0A3F588539A42D8D01C
S31508012B5024F4FF7323F00103B3F1062FD1D00F49F3
S31508012B608A42CED00E4A9342CBD004F0FE43B3F14B
S31508012B70407F04D12304CCD56FF08605D8E7B3F19D
S31508012B80A06FF7D0034B9C42C2E73D46D6E700BF8C
S31508012B9000030006FF0000020013000600090006F4
S31508012BA00004000638B500F0FE43B3F1407F044641
S31508012BB00D4602D06FF0860038BDFFF767FE002884
S31508012BC0FAD114F47C1F12D0C4F30543032B1370F6
S31508012BD022D9284A2240B2F1607F3DD1264AE4B281
S31508012BE044F0007494422BD1102BE5D9E2E7214B2E
S31508012BF02340B3F1607F15D11F49E3B243F0007357
S31508012C008B4202D110231370D6E703F17E43043BAE
S31508012C100F2B04D9002313706FF08500CCE71749F1
S31508012C20CB5CD3E7B3F1707FF4D101F4E043B3F59C
S31508012C30005FEFD10123C1F302218B40DBB2C5E767
S31508012C4004F17E44043C0F2CB4D80D4A125D93421C
S31508012C50B0D8142BB0D9DFE7B2F1707FAAD105F449
S31508012C60E042B2F5005FA5D10122C5F30225AA40CB
S31508012C70EDE700BF0000C07F030000029AD10308F8
S31508012C809AD1030837B50B4D0C462B787BB1002337
S31508012C900A460193014601AB281D20F0E7FB20B93E
S31508012CA0019BA34218BF6FF0930003B030BD6FF0CC
S31508012CB08800FAE7801A00202DE9F04F9B46002389
S31508012CC0924601F0FE4297B0B2F1806F0E46DDE9F9
S31508012CD02078DDF88890089305D0184620F0C7F8C3
S31508012CE06FF086043CE00B464FF4807208A9FFF7A3
S31508012CF0E9FE044618B1089820F0B9F830E0DDF885
S31508012D0020C00DAC6546CDE914000FCD0FC495E87A
S31508012D100700BCF8003084E8070003F4E042B2F586
S31508012D20005F20D113F4E06FC3F302211BD03848AA
S31508012D3026F4807282420AD000F50070864206D0D7
S31508012D403448864203D0A0F53F4082420BD1012583
S31508012D508D40102D12D9604620F089F86FF0830452
S31508012D602646002548E042F20402934202D12A4B44
S31508012D709E420BD0294B9E4244D10D25A84507D228
S31508012D80604620F074F86FF08904E9E70C25F5E749
S31508012D90294609A8FFF776FF04460028ABD108980B
S31508012DA0D0E9091287B307EB050C0E9CA8EB0503BE
S31508012DB0240A93D10DF12408CDE90539CDE903BCDF
S31508012DC03346CDE9015ACDF800800DA801F0A0FEE1
S31508012DD0044614F1860F08988ED020F048F8064666
S31508012DE0002CBDD190B925B12A464146384629F06D
S31508012DF0C9F9D9F800301D443046C9F8005017B052
S31508012E00BDE8F08F0025CAE7BC46CEE70446A7E72A
S31508012E100010C00400FF4004000180040013C00430
S31508012E2008B500F05FF8064B5A7812B10022C3E9DB
S31508012E300122BDE808400C210148FFF71BBD00BF70
S31508012E40801A002070B50C4D2B7873B920F00CFB55
S31508012E50044668B902230126C5E90100AE706B7004
S31508012E6000F038F8044618B92E700024204670BDC3
S31508012E70FFF7D6FFFAE700BF801A002000F10042EB
S31508012E800332022A38B504460D4609D82C21104BBF
S31508012E9001FB02339A68824211D06FF08B0010E071
S31508012EA001211FF096FF78B1094B9A68944206D022
S31508012EB05A6B944206D01A6E9442EED158330020CA
S31508012EC02B6038BD2C33FAE76FF08700F9E700BFAE
S31508012ED08C1A00200122024B002083F884207047B7
S31508012EE08C1A002070B5094C002526460421204677
S31508012EF01FF080FF013520461FF01EFB032D04F14C
S31508012F002C04F3D1002386F8843070BD8C1A002076
S31508012F10F8B51B4C064694F884300F464BB300258A
S31508012F202346294693F820001A46B8B125B91A79D5
S31508012F3012B1022808BF1D460131032903F12C03EA
S31508012F40F0D115B96FF08C0015E0042128461FF061
S31508012F5051FF68B928461FF0EFFA2A460020094BA7
S31508012F60141BA4105C4304F10044033C34603A602A
S31508012F70F8BD6FF0880000233B603360F8E700BFB7
S31508012F808C1A0020A38B2EBA2DE9FF4100230B6072
S31508012F90394B804693F884300D461646002B68D087
S31508012FA0FFF76CFF0446A0B92EB9286804B0BDE83E
S31508012FB0F0411FF049BF012E04D00024204604B079
S31508012FC0BDE8F0810521286804B0BDE8F0411FF08D
S31508012FD011BF10F18C0FF1D1294601A8FFF798FF0F
S31508012FE004460028EAD101232F68CDE90200C7F873
S31508012FF0088038467B6003AA02A91FF0E3FF04464E
S3150801300088B1DDE902011FF0DBFF2D68042128469E
S315080130101FF0F0FE28461FF08FFA14F18C0F08BF37
S315080130206FF08704CAE7DDE9021238461FF00FFA86
S315080130300446DDE902011FF0C3FF002CE5D1022198
S3150801304038461FF0D7FE04460028DED12868C36833
S31508013050D90444BF43F48063C360C3689A0444BF78
S3150801306043F40063C360002EA0D0012EA5D105212B
S31508013070AAE76FF08804A1E78C1A002030B40D4D39
S315080130802C681C606C685C6000249C605468DC6079
S3150801309014881C8254885C82D4685C6114699C61BA
S315080130A0526930BCDA6119620A46014603F1240005
S315080130B029F068B8AAD103082DE9F843232904465B
S315080130C00F4691469846089E04D86FF098052846FB
S315080130D0BDE8F8830822194929F01FF80546002892
S315080130E0F3D1A368002BF0D1216A243F8F42C8F897
S315080130F00010EAD3B1F5005FE7D271B9C9F800004B
S31508013100E3687360238A3380638A73806369F36033
S31508013110A3693361E3697361D9E701201FF0B2FF3F
S31508013120C9F8000030B1D8F8002004F1240129F0CB
S3150801313029F8E5E76FF08C05C9E700BFAAD10308AE
S31508013140024A034903480BF053BB00BFB4D1030835
S31508013150D8D1030820D2030838B520F06AF800252B
S31508013160084B094C1A682368C31A2AB123B1516955
S31508013170994203D3C91A5161206038BD55615B1A5A
S315080131809268F2E71C1B0020181B0020C38870B543
S3150801319004460D463BB900F0DFFC8542064602D2DD
S315080131A020F06FF835460E4965610B688BB90C60DE
S315080131B0A3600DE0AD1A9A68184665616AB11346AF
S315080131C05A69AA42F6D930B18460521BA3605A6182
S315080131D070BD0020F4E70C60F7E79C60A260F7E792
S315080131E01C1B002038B5134D2B685B6993B1124A35
S315080131F0022014681C4420F023F8204600F0EAFA5D
S3150801320000230E492A680B70D088800709D5012347
S315080132100B7038BD022020F013F8022000F024FBC1
S31508013220EEE79268002AF4D050690344012BEBD9E2
S31508013230EFE700BF1C1B0020181B0020E433002009
S3150801324070B516469DF81420C0E903360271049A32
S31508013250BDF818300260002204460D468260C3801C
S31508013260EEB91FF0E6FF2844A0619DB12E4620F075
S315080132700BFE0546FFF770FF31462046FFF786FF2E
S31508013280104B1B68A34201D1FFF7ACFF284620F07B
S31508013290FFFD02E0E36865617BB9002070BD1FF0A0
S315080132A0C8FF3044A061002DE0D1E3686561002BB9
S315080132B0DDD0204621689847D9E7204621689847F6
S315080132C0EBE700BF1C1B002000220C490B687BB1F1
S315080132D083420AD183687AB1936083681BB15A69BC
S315080132E041690A445A61002070471A469B68EEE70D
S315080132F00028EFD0022070470B60EEE71C1B002068
S3150801330070B520F0C8FD144E05463478FCB9134B48
S315080133101C60134B1C60134B1C8000F019FA01202A
S315080133201FF08EFF1FF0A7FF0F4B0246186020B94A
S31508013330284620F0B6FD232070BD234640F2E7312A
S315080133400A481BF0E3FD0A4B18600123337028462F
S3150801335020F0A7FD0020EFE7E53300201C1B002025
S31508013360181B002088330020201B002018FCFFFFB3
S31508013370141B002070B5044640B320F085FD144E99
S315080133800546FFF7E9FE3068A04209D02046FFF757
S315080133909BFF0446B0B1284620F07AFD204670BD51
S315080133A0FFF792FF04460028F5D133683BB902209E
S315080133B000F042FA284620F06BFD0024EEE7FFF7FD
S315080133C011FFF7E73368002BF4D1F0E72224E5E78C
S315080133D01C1B002038B50C460546A8B1A1B100232F
S315080133E00B7020F058FD0121084B1B6833B920F0FA
S315080133F058FD002038BD9D4204D121702278002A4B
S31508013400F9D0F4E79B68F1E72220F3E71C1B0020BB
S31508013410F8B506460F4620F03EFD00250446124B38
S315080134201B6823B9204620F03CFD1B2011E05A6990
S315080134301544DA88B2420DD11FF0FBFE0B4E3368F4
S31508013440C01AA8420AD3002320463B6020F029FD72
S315080134500020F8BDFF2EEFD09B68E2E71FF0E9FEDA
S3150801346033682B441B1AEFE71C1B0020181B00208E
S3150801347008B5074B187848B11FF0CDFE054B1B68F8
S315080134809B69C01A02288CBF0020012008BD00BF15
S31508013490E43300201C1B0020014B1868704700BF4D
S315080134A0201B002038B50021044640F2E730054BC1
S315080134B04FF47A721D680023E5FB04011BF026FD13
S315080134C038BD00BF201B0020012300B58DB08DF843
S315080134D00F30FFF7E7FF00230146CDE90033074A1E
S315080134E00DF10F0304A81FF04DFE18B99DF80F3012
S315080134F0002BFBD10DB05DF804FB00BF09310308B1
S31508013500F8B50C4B05461B680E4683420FD30024BB
S3150801351040F2E7302146084B4FF47A721F680023C0
S31508013520E5FB07011BF0F2FC30602046F8BD2120BF
S31508013530FCE700BF141B0020201B0020F0B51F4626
S31508013540002387B00C46164605468DF8133050B34E
S315080135500DF11301FFF73EFF9DF813302BBB2046F3
S3150801356005A9FFF7CDFFE0B9114BE8831B6828468B
S315080135705C434FF47A73B4FBF3F203FB1244191B51
S3150801358089B2994208BF0021BDF83430A983059A4A
S3150801359002939DF830301146CDE900733346FFF7A3
S315080135A04FFE07B0F0BD2220FBE70220F9E700BF76
S315080135B0201B0020014B1868704700BF141B002010
S315080135C00F4B10B51A689AB14FF47A71531E13420C
S315080135D0A0FB01010ED1B2FA82F2C2F11F04531CFB
S315080135E0D243E04001FA03F3184321FA02F20243F7
S315080135F0104610BD00231BF089FC0246F8E700BF00
S31508013600201B0020C2072DE9F04704460BD5474A7F
S31508013610138801339BB21380FFF79EFD444B1B6849
S315080136200BB1FFF7DFFDA3077ED520F034FC4FF081
S31508013630000905464E46FFF78FFDC8463C4F3C68D4
S315080136400CB163698BB100223A4B012E1A7003D172
S3150801365019F0020F18BF1E70002C61D0FFF7C2FDCA
S315080136602846BDE8F04720F01CBC23465A693AB9FA
S315080136701A792179914288BF1C469B68002BF5D19E
S31508013680284620F00EFC2569DDB11FF0D2FDA2699E
S31508013690A0EB02094FEAE9734D4578EB030311DA0A
S315080136A023691344A361E368B4F80690013613B19C
S315080136B020462168984720F0EEFB0546FFF74CFDAA
S315080136C0BDE7A94620F0E7FB82462046FFF7FCFD49
S315080136D0504620F0E6FB2369002BE4D0A38BB5EB1B
S315080136E0090533B1E28B13449BB2B3F57A7F0FD246
S315080136F0E38320F0D0FB814629462046FFF746FDA5
S31508013700A369226948461344A36120F0CAFBCAE7A4
S31508013710A3F57A73E383A369013D013BA361E8E756
S31508013720022000F089F89BE7BDE8F087883300207E
S315080137301C1B0020E333002010B520F0ACFB034B23
S315080137401C7820F0AEFB204610BD00BFE3330020F5
S315080137501FB500241C4B012118689A880290D3F8DA
S3150801376006009B7A00903E20ADF80C208DF80430B7
S3150801377002F016FE02A88DF808408DF80C4003F0F9
S31508013780C3FE694601208DF8004003F079FE4FF02B
S31508013790B04240F2FF31936923F47F7323F00303A8
S315080137A093610A4B5961936A13F00803FBD11362BB
S315080137B0012003F07FFE4FF40042054BC3F8802138
S315080137C01A6004B010BD00BF4ED20308002000588D
S315080137D000E100E010B5044620F056FB4FF0B04278
S315080137E0936A1907FCD4136A116C5269520604D4F8
S315080137F0CA1A032A01D899420ED1E21A022A98BF97
S31508013800DC1CB4F1FF3F38BF013C4FF0B0431C64E8
S315080138109A6942F040029A6120F03AFB054A137808
S315080138203BB14FF0B041CB6B43F00203CB630023AE
S31508013830137010BD120D0020820700F001030AD58E
S315080138400121084A43F0400311704FF0B041CA6B99
S3150801385022F00302CA634FF0B0418A6922EA0303E0
S315080138608B617047120D0020830742BF4022014B2E
S315080138705A6170470010005810B520F00CFB4FF044
S31508013880B04304465B695A06074A03F0010003F090
S31508013890510348BF40F002005361FFF7B3FE2046CB
S315080138A0BDE8104020F0FDBA002000580A4B10B5BB
S315080138B0D3F8403203F00303013B012B0BD820F068
S315080138C0E3FA04460121022000F0CCF82046BDE8BF
S315080138D0104020F0DDBA10BD00800050054B1A7863
S315080138E02AB95B78002B0CBF032002207047012000
S315080138F0704700BFF03300200329F8B598BF124B73
S3150801390005460E468CBF00245C5C032805D8DFE813
S3150801391000F002080B0E44F002040C4B1F684FB965
S31508013920F8BD44F00804F8E744F02004F5E744F04C
S315080139308004F2E77B681A68144203D031462846A8
S315080139405B6898473F68EAE759D20308501B00208D
S3150801395038B5104D2B78ABB10F4C23781BB100F05D
S31508013960ABFB0023237000201FF097FC0B4C50B1D2
S3150801397000F0F4FB0023012120782B70FFF7BCFF30
S315080139800123237038BD0122054B1A702278054B95
S315080139901A70F7E7EB330020E9330020F2330020F1
S315080139A0EC330020ED33002010B520F06DFA064BFC
S315080139B004461B781BB1BDE8104020F069BAFFF731
S315080139C0C7FF2046F7E700BFE8330020094A137806
S315080139D030B101331370084B1B78012B03D870479C
S315080139E0013B13707047054B1B780BB9FFF7B0BF46
S315080139F0704700BFF0330020F2330020EC3300207B
S31508013A0070B520F041FA124E054633789BB9FFF797
S31508013A1077FC044620B1284620F03AFA204670BDC4
S31508013A200C4820F0F0FAFFF741FF0B4B1C60FFF73B
S31508013A3033FD0A4B186000F02BFA1FF030FC084BD7
S31508013A400024186001232846337020F021FAE5E79F
S31508013A50F3330020501B0020241B00204C1B0020A0
S31508013A60281B00202DE9F843284A0138135C39B18F
S31508013A70274F013339781354012904D8BDE8F8834F
S31508013A80013B1354FAE7FFF729FF0128044635D805
S31508013A9020F0FAF9DFF88480054698F8003013B368
S31508013AA01C4E33781BB9012232701B4A1370DFF89A
S31508013AB0709099F8003023B100F0FEFA002389F8D6
S31508013AC00030284620F0E4F901201FF0E6FB20F03B
S31508013AD0DBF9337805461BB100F040FB0023337050
S31508013AE0002388F80030284620F0D2F93878A04219
S31508013AF0C4D02146FFF700FF3C70BFE70329F5D183
S31508013B000228F3D11FF0CFFBF0E700BFF033002006
S31508013B10F2330020E8330020EC330020EB33002099
S31508013B20E933002010B5044620F0AEF9002C0CBF8D
S31508013B30FF210121064A13780B44DBB21370B3FA4D
S31508013B4083F3BDE81040034A5B09137020F0A0B95E
S31508013B50EF330020EE33002038B520F095F9094BF4
S31508013B6005461B78012B04D820F092F9002420463B
S31508013B7038BD054B1C6800F03BFB0444284620F081
S31508013B8087F9F4E7F2330020241B002038B5416099
S31508013B90044620F079F905462146044820F036FA0C
S31508013BA02846BDE8384020F073B900BF501B0020F5
S31508013BB0054B1B685843054B00F5742000F23F205E
S31508013BC0B0FBF3F0704700BF4C1B002040420F00CA
S31508013BD02DE9F04F85B0EFF3108772B6AFF3008089
S31508013BE020F0A1FA00286FD0804EDFF82C823378B6
S31508013BF023B10020FFF7EAFE00233370FFF76EFEBC
S31508013C000446002867D0841EE4B2012C6AD9FFF75E
S31508013C1065FE01280546764CDFF8009200F28C8095
S31508013C202078854240F0C680207800F0CBFA99F8D2
S31508013C30003013B16F4B1B782370AFF3008007B9BF
S31508013C4062B6EFF3108772B66B4B1A7852B100223F
S31508013C501A70684B20781B78984203D1012121708C
S31508013C60FFF74AFE6548FFF785FB20F06BFA054624
S31508013C700028BCD1624BDFF89481187098F800309F
S31508013C80ABB189F80000DFF88C9199F800301BB1C7
S31508013C9000F012FA89F8005000201FF0FEFA0028F9
S31508013CA000F09B8000F05AFA002388F80030337838
S31508013CB023B10020FFF78AFE002333700021207804
S31508013CC0FFF71AFE00232370AFF3008007B962B627
S31508013CD005B0BDE8F08F3378002B98D0FFF776FE54
S31508013CE0347094E7002003A9FFF792FB04460028E5
S31508013CF08DD1D8F80030039A9A4205D80120FFF7EA
S31508013D0065FE0123337082E73E4B1D6800F070FAA9
S31508013D10039B05449D42F1D200F082FA8200039981
S31508013D2042F0020292B2CDE900422346364A491BC5
S31508013D3032481FF0ECF96AE7344BDFF8C4A093F870
S31508013D4000B0BBF1000F25D100F046F92078854275
S31508013D5030D19AF800307BB92C4D2B78002B7FF4A3
S31508013D6063AF2B4B1B7823B900F0A0F90122294B2D
S31508013D701A7001232B7057E7022DEDD18AF800B08E
S31508013D8015E02378022B25D100238AF8003027F085
S31508013D9071FE1FE0207885420CD19AF80030002B7D
S31508013DA03FF442AF022DD7D100238AF8003027F01D
S31508013DB061FED1E70023DFF848A08AF8003099F8B8
S31508013DC0003013B92946FFF797FD9AF80030257098
S31508013DD0002BD6D1012DBFD826E7012000F0F2F934
S31508013DE007B962B6EFF3108772B655E7EA330020D2
S31508013DF0F2330020ED330020E63300202C1B00208F
S31508013E00EE330020241B0020A9390108EB330020DA
S31508013E10EF330020E9330020281B0020EC33002073
S31508013E2010B520F031F80022044B1C781A7020F0E6
S31508013E302FF8FFF781FC2043C0B210BDE7330020FD
S31508013E4073B5114E0446337883420FD04FF400738D
S31508013E500E4DADF8043058B101A802F093FF402089
S31508013E60FFF7A6FE2B68181A2860347002B070BDD9
S31508013E708DF8050001A802F085FF4020FFF798FE9E
S31508013E802B681844F0E700BF130D0020881B00209B
S31508013E9073B5002401A88DF8044003F025F82046DF
S31508013EA0FFF7CEFF404A4149136F414803F0070324
S31508013EB00B60D2F800113F4D01F0030101604FF488
S31508013EC000203D49032B48664FF40030486601F54A
S31508013ED098318969C1F3400129705DD0D2F8203142
S31508013EE003F00303981E43424341D2F82421334C7D
S31508013EF002F00702022A08BF43F001034FF4C87013
S31508013F002370FFF755FE00222D4B2E4918602E4EC1
S31508013F100B680132D2B20A2A46F8040BF9D10344D6
S31508013F2000EBC00003440B602B78284D63B323785C
S31508013F301D4A3BB9D2F8003103F00303591E4B421F
S31508013F404B412370D2F8003103F00303022B25D02D
S31508013F50032B26D0012B17D103F0EAFC024698B1B0
S31508013F601B4B1C4EDC6800231946C4F30B040134B1
S31508013F7004EB84040138E4FB06011AF0C7FFFFF7D6
S31508013F8017FE2B6803442B601F20FFF711FE2B68D1
S31508013F9003442B6002B070BD0123A6E703F0E2FCDF
S31508013FA0DCE720F043F8D9E7008000508C1B00209D
S31508013FB0901B0020F733002000900050F8330020B2
S31508013FC0541B0020581B00205C1B0020881B002066
S31508013FD000C0015040420F00074A0849D2F8203173
S31508013FE003F003030B60D2F82431054A03F00703F3
S31508013FF013601FF05BBF00BF00800050981B0020B4
S31508014000941B00200E4B1A78C2B100221A700D4B70
S315080140101A6F22F0070242F001021A67D3F820212B
S3150801402042F00302C3F82021D3F8242122F0070223
S3150801403042F00302C3F8242103F064BC704700BFB1
S31508014040F63300200080005008B5134B1B7813B3D4
S3150801405002201FF001F9F0B1FFF70AFAD8B10F4BA8
S315080140609A6DD10302D5DA6D920714D49B6DDB07DD
S3150801407011D401220A4B1A701FF0CDF8094B0A4ACE
S315080140801860136F23F0070343F003031367BDE8B2
S31508014090084003F037BC08BDF833002000C00050C3
S315080140A0F5330020841B0020008000500122014BBB
S315080140B01A707047F6330020F8B51F4B1B78002B92
S315080140C039D01E4C2378B3B91D4B9A6DD10302D54D
S315080140D0DA6D92072FD49B6DDB072CD41FF09BF862
S315080140E0184B194A1860136F23F0070343F00303AB
S315080140F0136703F007FC1FF08EF8124B134D1B686C
S31508014100134EC01A2B78134F56F8232046F823006E
S31508014110111A3A681048521A0A213A600932B2FB52
S31508014120F1F20133DBB20260B3FBF1F201FB1233A8
S315080141302B7000232370F8BDF8330020F5330020D7
S3150801414000C00050841B002000800050F43300207A
S315080141505C1B0020581B0020541B002008B51FF0CB
S31508014160A8FE124B12491A6F096822F007020A4380
S315080141701A671049D3F82021096822F003020A4375
S31508014180C3F820210C49D3F82421096822F0070233
S315080141900A43C3F82421094B1B7813B10122084BA2
S315080141A09A62BDE8084003F0ADBB00BF008000502D
S315080141B08C1B0020981B0020941B0020F83300203C
S315080141C000E0005002280AD003280BD001280CD1A0
S315080141D0064A136923F00403136130BF70470020B0
S315080141E002F0DCBD002002F0F9BD704700ED00E0E9
S315080141F0054B187818B1054B186800EBD000044B2D
S315080142001B681844704700BFF8330020541B002070
S31508014210881B00200122014B1A707047F8330020D1
S31508014220014B1878704700BFF8330020BFF35F8F42
S31508014230074B5A6A22F480325A62D3F8942022F044
S315080142400102C3F89420BFF34F8FBFF36F8F7047F6
S3150801425000ED00E070B52948294CFFF7E7FF8442D5
S31508014260284D294919D1D5F8C03023F0FF0343F069
S31508014270A003C5F8C0304FF080430A68214D234E8C
S31508014280C5F8982043F0010301328442C5F89C60C1
S31508014290C5F8A0300A601ED00DE0D5F8C02020F080
S315080142A01F03203B22F0FF0242F0A002B3F1005F98
S315080142B0C5F8C020E1D2164B0A68124823F01F033D
S315080142C043F00303C0F89820C0F89C30114B013223
S315080142D0C0F8A0300A60BFF35F8F0522094BC3F807
S315080142E094205A6A42F480325A62BFF34F8FBFF361
S315080142F06F8FBFF34F8FBFF36F8F70BD380D0020DF
S31508014300E80E002000ED00E09C1B002003000020C1
S31508014310070F0020E1FFFF3FF8B51446FFF786FFB8
S315080143201F2C27D90027C2062A4D1CBF20F01F00C3
S3150801433020302A68CB06284B18BF21F01F01FCB292
S31508014340A2422BD8D3F8C04020F01F0024F47F44A2
S3150801435044F4807421F01F01C3F8C04040F0030003
S31508014360C3F8982041F003010132C3F89C00C3F851
S31508014370A0102A600020BFF35F8F0522164BC3F8F1
S3150801438094205A6A42F480325A62BFF34F8FBFF3C0
S315080143906F8FBFF34F8FBFF36F8FF8BDC3F8984088
S315080143A0D3F89C40D3F8A06024F01F04A04226F05D
S315080143B01F0601D1B142DDD0B04201D8A14207D2D0
S315080143C0D3F89840013724F0FF04C3F89840B6E7BC
S315080143D02820D0E79C1B002000ED00E0BFF34F8F9B
S315080143E00549064BCA6802F4E0621343CB60BFF382
S315080143F04F8F00BFFDE700BF00ED00E00400FA059E
S3150801440010B504461FF040FD024B1C601FF040FD2D
S31508014410002010BDA01B002010B51FF035FD034B71
S315080144201C681FF035FD204610BD00BFA01B0020EB
S3150801443013B5002301241A46194618460094FEF7B7
S31508014440B7F9002300941A4619461846FEF7E2F909
S315080144500248FFF7D5FF002002B010BDC40A0020AC
S3150801446007B5064B18689B8800906846ADF8043076
S3150801447002F0A8FD002003B05DF804FB5DD2030835
S3150801448013B50024064A6846536F43F00103536780
S3150801449000948DF8044002F0C5FC204602B010BD18
S315080144A00040005030B58BB06C46174D0FCD0FC488
S315080144B00FCD0FC495E8030084E80300134BD3F826
S315080144C04C2112031CD5A3F5FE431C884FF6FF7336
S315080144D09C4208BF8C248DF8194002F0D3FA204477
S315080144E080F308008DF81800094803F027FA684692
S315080144F002F0E8F9322002F041FB00200BB030BD92
S31508014500D3F85041E4B2E6E764D203080080E00F2D
S3150801451000F0490230B5094D87B001AC0FCD0FC483
S315080145202B6801A8236020238DF8053002F0E2FAF2
S315080145300A2002F01DFB002007B030BD8CD203080B
S315080145406FF00403502110B50A480B4C13F0800F85
S3150801455003F1010207D12344432A83F800131346C2
S31508014560F4D1002010BD03F00F03043B0344197670
S315080145701346EBE700ED00E000E100E04FF40052DE
S31508014580034B00209A660322C3F86022704700BFD6
S315080145900090005008B501F029F9C30708D501F0C4
S315080145A09FF9062804D00A28F5D101F0EBFBF2E7BA
S315080145B04FF40052034B00209A660322C3F8602287
S315080145C008BD00BF00A000504FF40052084B10B5BB
S315080145D09A660322C3F860221EF0D3FE0446FFF74B
S315080145E0D9FF00280CBF20466FF0920010BD00BF0E
S315080145F00090005037B5154D2B782BBB0093144B03
S31508014600019302AB13E9030001F048F84FF4005295
S31508014610104B9A660322C3F860221EF0B2FE0446C6
S315080146201FF0F2FB40F000401FF033F9FFF7B2FF2D
S3150801463028B1002C08BF0446204603B030BD002C23
S31508014640FAD101232B70F7E70024F5E7F9330020A7
S31508014650213E030800900050012300F01F02A0F537
S3150801466006200949A0F550604009934051F82020D9
S315080146701A4341F82020054951F8202022EA03026D
S3150801468041F82020704700BFB81B0020A41B00205A
S315080146900121A0F506230E4AA3F550635B0900F034
S315080146A01F00814052F82300014342F823100949AB
S315080146B0D1E90030034488680344C868096903449A
S315080146C05B1802BFC2E90033C2E9023313617047BE
S315080146D0A41B0020B81B00202DE9F04FA9B00392B6
S315080146E01D4604460822339ECDE90401414021FABC
S315080146F002F34B40980702F1080218BF9B00202AD3
S315080147001C44F4D18123B4FBF3F303EBC313E41A7A
S31508014710734B04F506241B7804F55064002B3ED12F
S3150801472002F0BCFF074620B16FF0910029B0BDE841
S31508014730F08F0146402208A827F019FD4022394684
S3150801474018A827F014FDDFF8B481DFF8B491C34641
S315080147500BF10F0ACDF800A0102208A95B46D9F87B
S31508014760000026F0DAFD0022014608F1100808AF1C
S31508014770914246D1CDF800A05B461022D9F8000037
S3150801478018A926F0D3FD4FF0000A834618AFD34582
S3150801479041D1544B9845DAD10122514B1A704FF049
S315080147A0810A4FF00008DFF85CB1A4F50627A7F5E2
S315080147B050635B095BF8232004F01F01CA40D20746
S315080147C03DD4494A52F82330CB40DB072AD5B8F104
S315080147D0000F08BFA0468123A7F6FF47B7FBF3F3EF
S315080147E003EBC313FF1A07F50624BAF1010A04F508
S315080147F05064DAD1039BBBB1B8F1000F14D044461B
S3150801480019E057F8040BCDE90612FFF725FF079AB9
S3150801481006990132ACE757F8040BFFF739FF0AF19D
S31508014820010AB4E7039B13B96FF08B007EE7B8F171
S31508014830000F18BF4446349B00201C6076E7329B64
S3150801484013B10023329A13600EB10023336010238B
S31508014850DFF8AC9000932A4600232146D9F80000D8
S3150801486013F0D6FC60BB32992A68204BC9B99A4223
S3150801487006D02146D9F8000013F062FD0028D3D1ED
S31508014880D5E90223DDE90410834208BF8A42A2D191
S31508014890039B002BCFD06B68012BCCD16FF0840022
S315080148A044E7102032999A420860E2D1002EE7D0F7
S315080148B033462146D9F8000018AA13F0FDFC48B181
S315080148C00B4B9842D5D00B4B9842D2D00A4B984203
S315080148D0D6D029E7329A336812689B1A3360CFE734
S315080148E0FA33002000710800A41B0020105D175E32
S315080148F0FFDF00F011E000F0FEDF00F0006D0800B8
S31508014900F00A0020B81B00202DE9F04F87B0824637
S31508014910894698461646DDF840B02AB1002B4FD095
S3150801492040F26C739A424ED8BBF1010F4ED800245F
S3150801493006F110073946012005941EF0A3FB05462A
S31508014940002846D021463A4627F011FC05ABCDE9A9
S31508014950014300942B46012250464946FFF7BCFE07
S31508014960044680B110F18C0F08BF6FF08D043A46EA
S315080149700021284627F0FBFB28461EF093FB20461C
S3150801498007B0BDE8F08F144BC5E902A92B60C5F83D
S3150801499004B02EB13246414605F1100027F0F2FB6C
S315080149A0059E0E483B462A463146006813F098FB99
S315080149B018B93046FFF750FED9E76FF09104D6E7EC
S315080149C06FF08604DBE76FF09104D8E76FF0850492
S315080149D0D5E76FF08C04D2E7105D175EF00A002068
S315080149E02DE9F0438DB08146DDE914780E4615466A
S315080149F01C469BB1B8F1000F05D16FF0860630460B
S31508014A000DB0BDE8F083002FF7D0B7F1005FF4D3FE
S31508014A10C3F1005303F580339F42EED810220021DB
S31508014A2008A827F0A4FB002207AB029305AB019364
S31508014A3006AB31460093484608ABCDE90522FFF798
S31508014A404BFE06460028DAD1059BA4B1AB4215D820
S31508014A5053EA0504D1D1069B0B48C8F800400094D7
S31508014A603A46079900682B4413F0D2FB002818BF71
S31508014A706FF09106C3E7AB42EDD2BEE75B1B9C42E2
S31508014A8028BF1C46E7E700BFF00A002030B58DB005
S31508014A900C4605461022002108A827F068FB0022CB
S31508014AA007AB029305AB019306AB21460093284653
S31508014AB008ABCDE90522FFF70FFE0446D8B9099BD5
S31508014AC0012B1BD0079D104B2946186813F038FC9B
S31508014AD0B8B90122A5F506230C49A3F550635B096C
S31508014AE005F01F00824051F823004240284641F84C
S31508014AF02320FFF7CDFD20460DB030BD6FF08404AD
S31508014B00F9E76FF09104F6E7F00A0020B81B0020D8
S31508014B102DE9F0438BB01746DDE91545DDE9132686
S31508014B209C46DDE91738894621B96FF086000BB036
S31508014B30BDE8F083002FF8D00EB9002CF5D11299F3
S31508014B4009B9002AF1D10DB9002BEED1B8F1000F40
S31508014B50EBD0244A944541D10288B2F5105F3DD184
S31508014B604288B7EBD20FE0D322F04001802902D068
S31508014B70B2F5807FD9D16CB3AE421CD232199542B7
S31508014B8019D29C42D1D831462246284627F0D5FA71
S31508014B902E4614F00F03C8D1CDE90197CDE90336A6
S31508014BA0CDE90543CDE907540993FFF7E7FC38B189
S31508014BB06FF09200BBE79C42EBD96FF08900B6E72C
S31508014BC007AA04A901A800F037FF0546FFF7E2FC8A
S31508014BD00543EDD10020C8F80040A8E76FF085002D
S31508014BE0A5E700BF004440042DE9F04FA9B083466C
S31508014BF017469A460E46DDF8C890DDF8D88029B9D9
S31508014C006FF08603184629B0BDE8F08F002AF7D061
S31508014C10B9F1000FF4D0349B002BF1D0B8F1000F95
S31508014C20EED00024424B0CAD93E8070085E8070057
S31508014C303C22214619A8189427F099FA33887288D4
S31508014C4003F4E040B0F5804FDAD03A4E3A480BEA21
S31508014C50060646F01066864263D1B2F5807F60D1BA
S31508014C6047F2121293425CD10620344ABAF11F0F59
S31508014C70D3680E940B931369126800FB03F3CDE90D
S31508014C800C23BDD9339B402BBAD9359B1F2B4BD946
S31508014C9009F1010220261292402299F800300F9755
S31508014CA0042B18AFCDE91324CDE91572109611948A
S31508014CB01794A5D1FFF762FC03460028A2D10B9BE6
S31508014CC015AACDE9086305AB07CA83E8070002AB55
S31508014CD012AA07CA83E80700DDE910018DE8030077
S31508014CE00F9B95E8070000F081FF0546FFF752FC88
S31508014CF055EA000384D13D46349A20AE2C4603CCAE
S31508014D00B44210605160254602F10802F6D100222C
S31508014D101146B9540132402AFBD12022C8F8002095
S31508014D2070E76FF085036DE76FF089036AE700BFE7
S31508014D30D0D203080000FFF600000209E4D20308F6
S31508014D40F0B50F461D468DB0002858D0002956D01B
S31508014D50002A54D0002B52D0048804F44F43B3F5EB
S31508014D60824F03D06FF085000DB0F0BDE3B224F099
S31508014D70FF04B4F5E24FB0F802C0F3D1122B01D00B
S31508014D80172BEFD10CF10701B2EBD10F4FEAD10680
S31508014D9038D31F4A06ACBCF5807F07CA84E80700EA
S31508014DA0E0D1122B07D11B4B1A691B681344CDE9B5
S31508014DB00632002308930023CDE909760B93FFF702
S31508014DC003FC0028D0D1FFF7D9FB0028CCD1124B20
S31508014DD01149059302AB049083E803000CAB13E970
S31508014DE003008DE80300099B94E807001EF061FEA5
S31508014DF00446FFF7CFFB204307D12E60B4E76FF0D7
S31508014E008600B1E76FF08900AEE76FF09200ABE775
S31508014E10D0D20308E4D20308213E03082DE9F04362
S31508014E208FB01D46DDE916C600285CD000295AD088
S31508014E30002A58D0002B56D0BCF1000F53D0002EB3
S31508014E4051D0038803F44F44B4F5824F51D1DCB2F3
S31508014E5023F0FF03B3F5824F40884AD0122C01D0C4
S31508014E60172C46D1C31DB2EBD30F4FEAD3083AD359
S31508014E704FEA4802571C674538D8B0F5807F38D1C4
S31508014E80122C18BF4FF000094FF0000308BF1C4C45
S31508014E90CDE9081805F1010114BF4C46D4F80C9068
S31508014EA0CDE90B120A930D93FFF768FBC0B9CDE95B
S31508014EB0058902AB08AA07CA83E807000EAB13E9FE
S31508014EC003008DE803000B9B94E807001EF010FE13
S31508014ED00446FFF75FFB20430ED104232B7037608E
S31508014EE00FB0BDE8F0836FF08600F9E76FF089002F
S31508014EF0F6E76FF08500F3E76FF09200F0E700BF81
S31508014F00E4D203082DE9F04389B00E4615461F463B
S31508014F10DDF8488020B96FF0860009B0BDE8F08356
S31508014F200029F8D0002AF6D0B8F1000FF3D003888B
S31508014F3003F44F42B2F5824F02D06FF08500ECE7D9
S31508014F40DAB2122A01D0172AF7D123F0FF03B3F5F3
S31508014F50E24F41D14488C8F8004044B9EB00B3F5A3
S31508014F60807FC8F80030E8D1122A0DD108E0E31D88
S31508014F70B5EBD30FCFD1B4F5807FDED1122A29D173
S31508014F80354B1C681B691C440023194670192C44AF
S31508014F9014F801CD10F8012D1143B2EB0C020CBF28
S31508014FA04FF0FF3C4FF0000C86420CEA030343EA3C
S31508014FB00203EDD10029AED0002BACDA109B9D423D
S31508014FC046D82A463146384627F0DCF8119B002098
S31508014FD01D60A2E70024D7E73378042B9BD16B1E0B
S31508014FE0DB005B08B3F5807FC8F80030A5D1122A2B
S31508014FF006F1010318BF4FF000094FF0400205936F
S315080150004FF000030ABF144C4C46D4F80C90CDE976
S315080150100623FFF7B3FA00287FF47FAFCDF80C908B
S31508015020D8F800300733DB08029308AB13E903000D
S315080150308DE80300059B94E807001EF017FE044659
S31508015040FFF7A8FA00287FF468AF002CB6D062E70C
S315080150506FF0890061E700BFE4D203080388B3F55E
S31508015060105F0ED14388DB08103B102B0CD8084A79
S3150801507022FA03F313F0010F14BF00206FF0860024
S3150801508070476FF0850070476FF08600704700BF64
S31508015090010101002DE9F04F8FB01546DDE918A988
S315080150A01E46DDF868801C9F09B300B3B8F1000FEE
S315080150B01DD0E7B1BAF1000F02D1B9F1000F16D12F
S315080150C0274B26F47E129A42B0F802B044D1FFF774
S315080150D0C5FF0446A8BBB5EBDB0F4FEADB0306D3D6
S315080150E016F47C1FC6F3054504D0102D03D96FF0BD
S315080150F0860426E010251B9A95422AD8CDE9011384
S3150801510000231022CDE905930DF12809CDE9033ACB
S31508015110CDE90823CDF81C90FFF730FA044680B98B
S3150801512007AA04A901A800F09BFC0646FFF732FA74
S31508015130044656B958B92A464946404627F022F840
S315080151403D6020460FB0BDE8F08F6FF09204002550
S31508015150F6E76FF08904F4E76FF08504F1E700BF1D
S315080151600002C0032DE9F041069F0C461646054686
S3150801517010B309B302B9FBB96288B3EBD20F4FEA90
S31508015180D20819D34C220021284626F0F0FF0D4BF0
S3150801519027F47E129A4212D12046FFF75FFF044692
S315080151A038B942463146281D26F0ECFFC5F8248059
S315080151B02F602046BDE8F0816FF08604F9E76FF0AD
S315080151C08504F6E70002C0032DE9F0410E461446B0
S315080151D00546002840D000293ED092B103682148EF
S315080151E023F47E1383423AD1AF6BF7B1C7F11008A6
S315080151F007F128004245284406D2274426F0C2FF73
S31508015200AF630020BDE8F081424626F0BBFF1022BD
S31508015210103C3C19AA63F4D0284605F128011EF072
S31508015220F4F80028EED14644A863102C0CD9671E61
S3150801523027F00F073A46314628461EF0E6F80028B9
S31508015240E0D1E41BDDD03E442246314605F1280073
S3150801525026F098FFAC63D4E76FF08600D2E76FF0CB
S315080152608800CFE70002C0032DE9F04388461F46B0
S3150801527005468BB070B169B163B10368234923F45C
S315080152807E1088423ED113F47C1FC3F3054604D031
S31508015290102E03D96FF086042AE0102696422BD8E1
S315080152A0FFF76CF9044618BBAB6B05F12802CDE98B
S315080152B001236B6A2A1DCDE904231023CDE90830A1
S315080152C007AB1A460390069005F13C0901A904A803
S315080152D0CDF81C9000F0E8FB0546FFF75BF904469C
S315080152E06DB928B932464946404626F04BFF3E601D
S315080152F020460BB0BDE8F0836FF08904F8E76FF03C
S315080153009204F5E76FF08504F2E700BF0002C003D7
S3150801531030B5154B87B00293144B0390049346F6A8
S3150801532011030D46059300F077F91428044616D1A2
S3150801533068461EF071F94FF0A843032202A95A6381
S3150801534019601D619A63DA6B9207FCD1142C02D19C
S3150801535068461EF06FF900F093F9044601E000284B
S31508015360E9D0204607B030BDCC1B00200400002040
S315080153702DE9F04FB1B005468C469E46E8466F4E7C
S31508015380DDF8EC90409C06F1100A474630687168D2
S31508015390083603C75645B846F7D13E9B03EB0208C4
S315080153A0C8F1000A0AF00F0AB9F1000F00F09D8052
S315080153B0C9F1000707F00F070121DDF8FCB044F039
S315080153C00050C4F11006CDF810B0059106903002D0
S315080153D000F4F85040F021000790B9F1000F40F0B1
S315080153E08680CDF820D047F00050002D00F084804B
S315080153F0099121210A9041EA07210B9142F00050B7
S31508015400CDF830C03D9B08A94FEA0A2C0D910E90A4
S315080154104CF041000F901093002A75D13E9B1191D3
S3150801542043F0005312933C9B1390149310AB1593BE
S31508015430434B444A169340F611031793424B0021F6
S31508015440002D08BF1346189314AB19933F4B10222E
S315080154501A9311231B931CAB184626F088FE0122CA
S315080154601D92002246F0804603461E96239205B9F0
S31508015470EB46102CCDF880B024AE4BD10123224641
S31508015480002130462193229426F071FE20AB00219B
S3150801549025938F4218BF334647F0804226923A9A9F
S315080154A02CA828922993B2FA82F35B0949EA8373F5
S315080154B010222B912A9326F05AFEB9F1000F00D03B
S315080154C028AED04448F080432CA918A82D962E93CF
S315080154D0FFF71EFF30B92DB90346A34225D100288F
S315080154E018BF2C2031B0BDE8F08F102764E7CDF83E
S315080154F020E049F0005078E7002C3FF479AF04A981
S31508015500099101210A9076E73E9B0CAA1192412046
S31508015510129388E71022002130462193229426F01F
S3150801552026FE002CB2D10123B1E703F1C0026A4479
S3150801553012F8C02C01331043CFE700BFA0D20308ED
S3150801554010000020B8D20308BCD2030804000020CA
S31508015550F0B5C0299FB0DDE9244557D0B1F5807F64
S3150801556004D0802948D029201FB0F0BD01265CB19E
S3150801557040F2344702941024039604942124019797
S315080155800594069502AC0AE040F2144702941024E9
S3150801559003960494212405940124019706950794FA
S315080155A001251024089409950A9221220B950C9439
S315080155B00D92174A0AAD0E92164A0F95109242F6A7
S315080155C011021192129313951494159201AA169227
S315080155D0D3B112AB1793042318931123199316AB5E
S315080155E01A901B9340F61103C9081C911AA806A91B
S315080155F01D93FFF78DFEB7E7012614B94FF48267AD
S31508015600C4E74FF48667B5E70EABE3E70F20ABE7D0
S31508015610B4D203081000001038B5164B5A6E42F082
S3150801562004025A66D3F8802242F00102C3F88022A6
S31508015630114B5B68C3F3080343B14FF0A842D36B20
S3150801564013F0430FFBD11424204638BD4FF0A8436D
S31508015650DC6B14F04304FBD1084D2B681BB90421FC
S315080156602846FDF70FFB2B68013343F000432B60F7
S31508015670EAE700BF0080005000ED00E0CC1B0020E7
S31508015680014B00205B68704700ED00E006289ABFD1
S31508015690014B185C00207047C0D2030882B06B46E4
S315080156A083E80300034A93E8030082E8030002B093
S315080156B0704700BFD01B00201B0603F0706300F083
S315080156C00F000902034301F47061120402F4702207
S315080156D00B431343014A1360704700BF0020025C65
S315080156E02DE9F04717460D4688B0002946D04C1ECD
S315080156F0B4F5806F52D22A4AD66816F48036FBD1A1
S3150801570040EA04243907222844F0004401F0805174
S3150801571008D02D38062833D84FF0490C2CFA00F05A
S31508015720C00734D51C430C4344F0407454601D4AE9
S3150801573003AB10685168022203C30023CDE906238F
S31508015740DFF864A00DF10C090DF11408CDF81490D9
S3150801575098E80E00DAE90004A047022148461EF03F
S3150801576014FA0028F2D00F22EB1C009223F003034F
S3150801577098E807007FB11DF07AFF04E00C46BAE706
S31508015780194321435160304608B0BDE8F0870B4301
S3150801579023435360F7E71EF003F8F4E70126F2E71F
S315080157A00020025CC7D20308D01B00200122054B4A
S315080157B09A60DA68D203FCD4D86820F00F00000496
S315080157C0000C70470020025C014B1868704700BF47
S315080157D00040025C014B5868704700BF0010025C2C
S315080157E0014B186B704700BF0010025C014B18682B
S315080157F0704700BF0010025C014B9860704700BFFC
S315080158000010025C014B1864704700BF0010025C6F
S31508015810014B5864704700BF0010025C014B586386
S31508015820704700BF0010025C0022014B1A607047E6
S315080158300010025C024A136843F0010313607047C3
S315080158400010025C43F20402014B1A60704700BF64
S315080158500010025C024A136843F030031360704774
S315080158600010025C044B1A6842F480721A601A68C6
S3150801587022F480721A6070470010025C024A1368AB
S3150801588043F48063136070470010025C034A13688F
S3150801589023F4702343EA0043136070470010025C47
S315080158A0044B1A6902605A6942609A698260DB6927
S315080158B0C36070470010025C0268044B1A614268B3
S315080158C05A6182689A61C268DA6170470010025C9F
S315080158D0024B1A6BD207FCD4186270470010025C9F
S315080158E0024B186B00F00E00704700BF0010025CF7
S315080158F00322024B186019615A6370470000025C63
S3150801590082B01FB507930A9B04AC8B4228BF0B468E
S3150801591004E907001048D100079948BF033301601D
S31508015920099948BF23F0030323F0704301F0E041CE
S31508015930194341F000518160002102F0E042019CC7
S315080159401A4342F00052C16004618261416304B0A6
S31508015950BDE8104002B070470000025C3F22034BCD
S315080159601A631022DA6103229A6370470000025C07
S31508015970024AD36B9B07FCD4704700BF0000025C48
S31508015980044B9B6A13F0240F14BF012000208000EA
S31508015990704700BF0000025C08B5FFF7F1FF064B30
S315080159A0DB6B23F47F4323F0EF0303431EBF01227E
S315080159B0024BC3F8FC2F08BD0000025C00F0FF3F54
S315080159C04368182B0AD0202B1DD0102B2BD1174B2F
S315080159D0D3F80434DB010AD401207047134BD3F8FA
S315080159E004349A01F8D50B6843F008030B60036881
S315080159F00F4A934210D10B6843F040030B60002312
S31508015A00436000207047094BD3F804345B01E3D5A2
S31508015A100B6843F00403E9E7064A9342F1D10B68A0
S31508015A2043F08003EAE70720704700BF0000025CE5
S31508015A30FC330020FB3300200B4607B50749D1F894
S31508015A400414C90708D5002100920246084600F049
S31508015A505BF803B05DF804FB0120FAE70000025C7D
S31508015A601346064AD2F80424D20504D50A46014645
S31508015A7000201EF014B80120704700BF0000025C28
S31508015A8013B5084CD4F80444E40508D50093134625
S31508015A900A460146002000F061F802B010BD012057
S31508015AA0FBE700BF0000025C13B5084CD4F80444B8
S31508015AB0E40508D5009313460A460146002000F07E
S31508015AC071F802B010BD0120FBE700BF0000025CBF
S31508015AD070B504460D4616468CB00A4A09AB07CA84
S31508015AE083E807001A462146CDE90563CDE9033364
S31508015AF0CDE9013300954FF480301DF0FCFE0CB062
S31508015B0070BD00BFD0D20308F0B51C465B681546C8
S31508015B108DB01A07129E1AD1CBB17268934216D16B
S31508015B200C4B0D4A53F8217009AB07CA83E80700E5
S31508015B301A462946CDE90533CDE90333CDE9016393
S31508015B40009447F480701DF0D6FE0DB0F0BD072015
S31508015B50FBE700BFDCD20308D0D20308F0B516462E
S31508015B605A688DB0102A0D46129F15D17A68102AE7
S31508015B7012D10A4A09AC07CA84E80700224629460F
S31508015B80CDE90547CDE90344CDE90144044800962A
S31508015B901DF0B1FE0DB0F0BD0720FBE7D0D203081A
S31508015BA030000100F0B516465A688DB0102A0D4628
S31508015BB0129F15D17A68102A12D10A4A09AC07CA66
S31508015BC084E8070022462946CDE90574CDE9034450
S31508015BD0CDE90144044800961DF08DFE0DB0F0BDD7
S31508015BE00720FBE7D0D203081000010082B070B588
S31508015BF086B0149D03AE202D86E807000B9359D86D
S31508015C0005EB85038B4203D006236B438B4253D1A5
S31508015C100C9BAB4250D10F9BB3EB450F4CD1129A5B
S31508015C20934249D1012229462220159BFFF758FDA7
S31508015C30044630BB034606220E210C20FFF73CFD25
S31508015C400123CDE900332B4696E807001DF0C4FD74
S31508015C500E230BAA009307CA2B461DF008FD0C2339
S31508015C60164C00930EAA2B4607CA1DF030FD636831
S31508015C7023F07F0343F026036360FFF797FD30B1F6
S31508015C800624204606B0BDE8704002B07047636836
S31508015C9023F07F0343F022036360FFF787FD044681
S31508015CA00028EDD1062311AA009307CA2B461DF039
S31508015CB041FDE6E70124E4E70724E2E70020025C68
S31508015CC070B598B0002843D02C4C08AD0FCC0FC541
S31508015CD00FCC0FC50FCC0FC594E80F0085E80F0050
S31508015CE06D4604AE04F1100320340FCB85E80F008E
S31508015CF094E80F0086E80F00FFF7B4FD0420FFF7CC
S31508015D00C5FDFFF79FFD3046FFF7D6FD002408AE17
S31508015D1056F8040B0134FFF7DBFD102CF8D1FFF719
S31508015D2059FD0328FBD90024FFF77EFD2646FFF718
S31508015D304BFD55F8043B01365840042E44EA00044D
S31508015D40F5D12CB1012206200D4B1A7018B070BD81
S31508015D50FFF788FD0820FFF74FFD0020FFF752FDEA
S31508015D600720FFF755FD4FF40070FFF757FD082090
S31508015D70FFF78CFDFFF75EFD0020E7E7C4D30308B4
S31508015D80FE33002008B5FFF76DFD0122014B1A709D
S31508015D9008BD00BFFD33002030B589B005AC84E8E5
S31508015DA00700FFF71DFDC30501D5FFF7EBFF0A4DF8
S31508015DB02B781BB11EF003F800232B70074B069AAC
S31508015DC0D3E901018DE8030002921B6894E80700F4
S31508015DD01DF0FBFE09B030BDFD330020B8D3030822
S31508015DE01FB51DF0ECFF044630B1012206240D4B08
S31508015DF01A70204604B010BDFFF7E6FC0090FFF7C5
S31508015E00E3FC0190FFF7E0FC0290FFF7DDFC03904D
S31508015E106846FFF751FDFFF7B5FFFFF71BFDFFF7D3
S31508015E202DFDE6E7FE3300207FB51422002101A8E7
S31508015E3026F09DF9044B01A94FF0FF30029325F096
S31508015E4016FD07B05DF804FB006A180038B504466C
S31508015E50054D25F0D3FC0FCC0FC594E8030085E862
S31508015E600300002038BD00BFD81B002047F6FF738A
S31508015E709A42F0B56FD002296FD8394B5B5C012B7A
S31508015E806BD8384DDF0005EBC30415F83330A1781C
S31508015E90012B13D10025E078401AA84202D80844FC
S31508015EA0C0B2F0BD431B6668A0EB530336F9136015
S31508015EB09642D4BF1D4603F1FF30EEE7606800281D
S31508015EC0EFD0B0F90040944204DBB0F902409442A5
S31508015ED0B8BF144683883D44FF2B19BFC8224FF02B
S31508015EE0280CB0F90620B0F908C0A2EB04030CBFD0
S31508015EF00126002693FBFCF333446E781BB29E42BF
S31508015F0001DD002B01DA731E1BB24FF47A7C0133D3
S31508015F109BB2071D5D1E2DB24FEAC50E00EBC505E6
S31508015F20EA88AD689E4214FB025222EAE27202F145
S31508015F305C02B2FBFCF204DD37F8335001339542BB
S31508015F40E8D200EB0E039888904228BF1046884293
S31508015F5038BF0846A4E7FF20A3E70020A1E700BF52
S31508015F6024D40308D81B00200229F0B555D82C4B98
S31508015F70585C012851D82B4C04EBC00114F83000A9
S31508015F804B6801280FD1C8788C78904294BFC4EB2E
S31508015F900001C4EB0201001BCAB28242C8BF00223B
S31508015FA033F91200F0BD002B37D08878904202D31E
S31508015FB0B3F90200F6E7CC78B3F900009442F1D9B7
S31508015FC04C789988013CA1F1FF06714203F1040559
S31508015FD0E4B2714103F10C07CEB2B44216D805EB0F
S31508015FE0C1014FF47A756A43B1F902404968521AF8
S31508015FF004EBD47102EB610292FBF4F29042D1DB1D
S31508016000B3F902009042CDDC10B2CBE737F831C0C4
S315080160104E1C9445E3D33146DEE70348C2E700BF89
S3150801602024D40308D81B00200080FFFF08B50448C4
S31508016030FFF70CFFBDE80840012025F0E3BB00BFD0
S3150801604028D4030800487047880C0020044BD3F86D
S315080160508420D206FBD4D3F88400C0F3811070479C
S315080160600040005038B5104B0546D3F820310C4690
S3150801607003F00303022B0BD0032B0DD0012B0FD1F9
S3150801608001F020FC052305B1286004B1236038BD61
S3150801609001F04EFC0323F6E701F060FC0223F2E768
S315080160A001230020EFE700BF0080005073B50D46BD
S315080160B000210E4B0191D3F88041064604F00304F2
S315080160C0012C09D0022C0CD00C460EB1019B336071
S315080160D005B12C6002B070BD01A8FFF7C3FF0F24FC
S315080160E0F3E701F03BFC0190EFE700BF00800050A9
S315080160F038B5184B0546D3F824010C4600F00700BD
S31508016100062823D8DFE800F0040A121A1E0E160024
S31508016110012305B1286004B1236038BD01F0D2FB23
S315080161200523F6E701F0CEFB0623F2E701F000FCB2
S315080161300323EEE701F0FCFB0423EAE701F00EFC7A
S315080161400223E6E71DF072FF0723E2E7002318465C
S31508016150DFE700BF0080005038B5104B0546D3F87D
S3150801616040310C4603F00303022B0BD0032B0DD051
S31508016170012B0FD11DF05CFF092305B1286004B17D
S31508016180236038BD01F0EEFB0823F6E71DF053FF47
S315080161900B23F2E701230020EFE700BF0080005040
S315080161A037B50C460021124B0191D3F884320546C6
S315080161B003F00303022B0ED0032B11D0012B14D1AC
S315080161C001A8FFF74FFF0F230DB1019A2A6004B109
S315080161D0236003B030BD01A8FFF7BEFF1023F3E724
S315080161E001F0BCFB02230190EEE70123ECE700BFB7
S315080161F00080005038B5144B0546D3F800020C460A
S3150801620000F0070004281BD8DFE800F003090D1188
S315080162101500012305B1286004B1236038BD1DF0BE
S3150801622007FF0923F6E701F09DFB0823F2E71DF0B6
S3150801623002FF0B23EEE701F065FB0E23800AE9E76F
S3150801624000231846E6E700BF0080005038B5104B1A
S315080162500546D3F840320C4603F00303022B0BD054
S31508016260032B0DD0012B0FD11DF0E2FE092305B139
S31508016270286004B1236038BD01F074FB0823F6E7F2
S315080162801DF0D9FE0B23F2E700231846EFE700BFFE
S315080162900080005038B5104B0546D3F860310C46DE
S315080162A003F00303022B0BD0032B0DD0012B0FD1C7
S315080162B01DF0BEFE092305B1286004B1236038BD6F
S315080162C001F050FB0823F6E71DF0B5FE0B23F2E7B4
S315080162D001230020EFE700BF0080005038B50C46C7
S315080162E005461DF0D1FD054B9A6A54402C40544091
S315080162F09C62BDE838401DF0CBBD00BF00C0005010
S31508016300B0F5207F1FD009D8B0F5007F15D003D886
S3150801631068B1B0F5C07F0AD000200CE0B0F5607F07
S31508016320FAD10B4BD3F88000C0F3011003E0084BF8
S31508016330186FC0F3033001307047054BD3F890004E
S31508016340C0F30460F7E7024B186FC0F38020F2E749
S31508016350008000504FF400320E4B014610B5002064
S315080163609A66FFF7CDFF484341F671320A490B4B4E
S31508016370884294BF00200120DC69DA635A6822F456
S31508016380401242EA00525A60E20344BF0022DA632D
S3150801639010BD00BF00900050005A62020000035071
S315080163A0420910B50FD0012A0FD00A4B0A4C022A0E
S315080163B018BF234600F01F0049B103F58053012297
S315080163C082401A6010BD1346F4E7044BF2E703F561
S315080163D00053F4E7688000506082005064800050E2
S315080163E01FB5002280280446019200F00C8100F2B4
S315080163F0BF803F2836D9A0F14D04142C02D9019843
S3150801640004B010BD142CFAD801A353F824F000BF28
S315080164108F650108FF6301088F6501088F6501080B
S315080164208F65010855660108AD6501085F660108B3
S31508016430FF630108FF630108FF630108FF630108A1
S31508016440FF630108FF630108FF630108A9660108E4
S31508016450FF630108FF630108FF6301088F650108EF
S315080164608F6501083F28CAD801A353F820F000BF59
S315080164708F650108FF630108FF630108FF630108CF
S31508016480FF630108FF630108FF630108FF63010851
S31508016490FF630108FF630108FF630108FF63010841
S315080164A0FF630108FF630108FF630108FF63010831
S315080164B0FF630108FF630108FF630108FF63010821
S315080164C0FF630108FF630108FF630108FF63010811
S315080164D0FF630108FF630108FF630108FF63010801
S315080164E0FF630108FF630108FF630108FF630108F1
S315080164F08F650108236601088F650108236601086F
S31508016500556601085566010855660108556601086C
S31508016510236601082366010869660108AD65010855
S3150801652095660108FD650108AD6501082366010840
S315080165302366010823660108FF630108FF63010852
S31508016540FF630108FF630108FF630108FF63010890
S31508016550FF630108DF650108236601082366010850
S3150801656023660108A96601089F66010823660108D2
S31508016570B0F5806F6ED024D8B0F5007F47D009D822
S31508016580B0F5807F75D0B0F5C07F7FF438AF01F0E4
S31508016590B9F93AE0B0F5607F49D03FF630AFB0F5CA
S315080165A0207F3ED0B0F5407F7FF429AF01F0AAF9EC
S315080165B002464FF42070FFF7A3FEB2FBF0F2520831
S315080165C02DE0B0F5C06F65D00ED8B0F5A06F46D0F6
S315080165D0B0F5B06F48D0B0F5906F7FF410AF0021D9
S315080165E001A8FFF785FD0AE7B0F5E06F57D0B0F5CA
S315080165F0F06F59D0B0F5D06F7FF401AF002101A833
S31508016600FFF7F8FDFBE601F063F90190F7E601F003
S315080166105FF902462046FFF773FEB2FBF0F20192DC
S31508016620EDE601F06FF902464FF42070F3E7214BCE
S31508016630D3F8803003F00303012B04D0022B06D0D4
S315080166404FF46070E7E701F043F90246F8E701F015
S3150801665039F9FAE7002101A8FFF704FDCFE6002181
S3150801666001A8FFF79DFDCAE6002101A8FFF71EFD57
S31508016670C5E64FF0E02302921B695B0705D501F0D9
S3150801668041F90290029B0193B9E603A902A8FFF713
S3150801669063FDF7E7002101A8FFF75EFDAFE60021DC
S315080166A001A8FFF7D3FDAAE6002101A8FFF7F2FD2D
S315080166B0A5E600BF0080005008B58020FFF790FED0
S315080166C0034B98429EBF4FF48032024B1A6708BDAE
S315080166D0005A620200A000501FB50023B0F5607F82
S315080166E0019300F0A88036D8522800F08B8016D87E
S315080166F02D280BD823280ED9243809280BD8DFE8EA
S3150801670000F0818181810A0A7C0A438B3D280ED0DB
S315080167103E2800F0A680019805B05DF804FB8028A4
S3150801672053D009D8542800F097805C28F3D100206B
S3150801673001A9FFF7AFFDEEE7B0F5807FEBD1029334
S315080167404FF0E0231B695B0761D501F0DBF80C23E9
S315080167500393039B4DE0B0F5D06F5DD019D8B0F522
S31508016760A06F79D00AD8B0F5806F4BD0B0F5906F8D
S31508016770D1D1002001A9FFF7BBFCCCE7B0F5B06F7A
S315080167803BD0B0F5C06FC6D1002001A9FFF7E4FCE4
S31508016790C1E7B0F5006FECD005D8B0F5E06F60D071
S315080167A0B0F5F06FC2E7B0F5086FB4D12F4BD3F847
S315080167B0003103F00303022B33D0032B35D0012B11
S315080167C037D101F0B5F8032313E0284B1B6F03F00B
S315080167D00703013B032B9ED801A252F823F000BF01
S315080167E0F7670108F1670108C76701082F680108FB
S315080167F0052301938FE70223FBE7002001A9FFF791
S3150801680055FC88E7002001A9FFF72CFC83E703A9BB
S3150801681002A8FFF7A1FC9CE7002001A9FFF7EAFC03
S3150801682079E701F09FF80823E3E71DF0FFFB07234B
S31508016830DFE70123DDE70D4AD2F8802002F00302E3
S31508016840012A05D0022AD4D101F03CF80623D0E763
S3150801685001F03EF80D23CCE7002001A9FFF7A0FCC3
S3150801686059E7002001A9FFF7F1FC54E70080005021
S315080168704FF40022034B5A66012203F580439A62BC
S31508016880704700BF0090005008B5FFF725FF08289C
S3150801689011D00938012802D94FF6FF7008BD4FF407
S315080168A00012064B5A6603F5D8335B6ADB07F3D544
S315080168B04FF4FA70F2E7024B1888EFE700900050A0
S315080168C0900C0020F8B504468020FFF705FF032841
S315080168D000F087804FF40022424B02215A6645F6A2
S315080168E00E03414AC2F88030404B9962012103F5F3
S315080168F080539962936DD903FCD4D4E900131B051F
S3150801690043EA0163E17B94F820500B43217BE77E40
S3150801691043EA0143617B6D0143EA0133A17B43EA03
S31508016920811313619169D4E904031B0643EA806361
S3150801693001F000410B43A17E94F823000B43217E0D
S3150801694043EA0143617E43EA01239361136AE669D7
S3150801695023F00D0394F8221043EA8703002E2DD164
S315080169601362966A94F8213045EA031326F0330533
S315080169702B4343F0010393621D4D1B4B9A6D35EA78
S315080169800202FBD10222194DAA621A659A6D5200BA
S31508016990FCD41A69A56822F4700242EA05521A6102
S315080169A04FF00042114B9A6119B9022203F580533F
S315080169B09A6278B901220F4B9A620BE0334343F08E
S315080169C008031362936A23F0330303432B4343EA11
S315080169D04103936294F824301BB1034B064AC3F86A
S315080169E08020F8BD0090005000C0005000D0005033
S315080169F00300014000E00050F1A7FFFF1E4BFF28EE
S31508016A0070B59E6A35D89A6D12F4803F18BF012178
S31508016A101A4A18BF9162022191629B6DDC0303D564
S31508016A20154A936D9907FCD50222144B124D1A6526
S31508016A30AC6D14F08044FBD1114AAB6992F9002080
S31508016A4023F47F03024423F47F4382F3080243EAD3
S31508016A50002343EA0243AB6131460220FFF73EFCBD
S31508016A60AB6DDB0303D531460120FFF737FC204622
S31508016A7070BD2124FBE700BF00C0005000D00050C4
S31508016A80FF330020014B93F900007047FF330020C4
S31508016A9001221548154B816A9A62826D02F003023A
S31508016AA0032AFAD102229A621A650F4A936D5B008C
S31508016AB0FCD40F48936D30EA0303FBD101220B4B3B
S31508016AC01A65A3F580539A6D9007FCD49A6D9207BF
S31508016AD0FCD50222054B1A65034A936D9B07FCD523
S31508016AE00320FFF7FBBB00BF00C0005000D00050D9
S31508016AF003000100F0B5D0E901434FF480061A4AB4
S31508016B004178057856664FF4D156022702F5B83210
S31508016B105662164E4F2977604FF0010728BF4F215D
S31508016B2006F5805677601669F603FCD441EA052115
S31508016B3051611B01417B43EA04230B43017B43EA71
S31508016B4041039360C37B817B1B0143EA4113417C6B
S31508016B500B43017C43EA41035360837C13B16FF411
S31508016B60D1535362F0BD00BF00900050001002508F
S31508016B70014B1880704700BF900C0020014B18800C
S31508016B80704700BF8E0C0020B0F5207F10B50C466B
S31508016B905DD008D8B0F5007F4ED003D8C0B1B0F5A6
S31508016BA0C07F15D010BDB0F5607FFBD12C4B4C1EB4
S31508016BB0D3F8FC202B4912F0807F4FEA041427D121
S31508016BC0D1F8803023F030032343C1F88030E9E758
S31508016BD01DF032F91DF03EF94FF48031224B214A5E
S31508016BE01967136F013C23F4704343EA04331367AF
S31508016BF000F088FE0446FFF729FAC0F10201204693
S31508016C001DF022F900F042F8BDE81040FFF754BD27
S31508016C10D3F8FC2022F08072C3F8FC20D1F880203A
S31508016C2022F030022243C1F88020D3F8FC2042F03A
S31508016C308072C3F8FC20B5E70A4A4C1ED2F8903098
S31508016C4023F0F85343EA0463C2F89030AAE7054AE9
S31508016C504C1E136F23F4806343EA84231367A1E769
S31508016C6000ED00E0008000500090005008B50121B9
S31508016C70022000F0E1F81DF0DFF81DF0EBF84FF403
S31508016C808032014B1A6708BD0090005008B54FF4D1
S31508016C90C070FFF7A5FBBDE808400449884294BFC8
S31508016CA0012102214FF42070FFF76EBF80F0FA022E
S31508016CB0034B5868C0F30800003818BF0120704715
S31508016CC000ED00E0054B420953F8223000F01F00A1
S31508016CD023FA00F0C04300F00100704700E100E02C
S31508016CE010B5224B70B94FF40031214A186051662C
S31508016CF002F598325268012A03D11E4AD2F80021B8
S31508016D001A6010BD1B68002BFBD01B4A5268012A6A
S31508016D10F7D0184A8020C2F80031FFF7DDFC0528B4
S31508016D201FD14FF4C070FFF7EBFA0128044604D1CE
S31508016D3002214FF4C070FFF727FF07220F4B1A6194
S31508016D400122A3F580535A600B4A1369DB07FCD568
S31508016D50012CD6D12146BDE810404FF4C070FFF78B
S31508016D6013BF0122064B5A60CBE700BFF01B002078
S31508016D70009000500080005000C0015000E0015012
S31508016D8000D00150044A4178536F23F4407343EA13
S31508016D9001235367704700BF0040005010B50446F1
S31508016DA010B10020FFF79CFF0B4A136943F0040357
S31508016DB01361FDF727F91DF077F830BF1DF075F857
S31508016DC0FDF742F91CB9BDE8104000F09BBD012052
S31508016DD0BDE81040FFF784BF00ED00E010B5104C88
S31508016DE060B9236943F004032361FDF70BF930BF4A
S31508016DF0FDF72AF9BDE8104000F084BD0020FFF731
S31508016E006FFF236943F004032361FDF7FBF830BFE5
S31508016E10FDF71AF9BDE810400120FFF761BF00BF71
S31508016E2000ED00E0034A0179D36E23F030030B43EA
S31508016E30D366704700400050F8B504461C4BD3F89A
S31508016E408420D106FBD4D3F88430C3F381139C4242
S31508016E502CD000F03DFD012C064602D121461CF03E
S31508016E60F3FF1DF011F84FF00072124B07465A66F0
S31508016E7020461DF021F84FF480630D4D621E9340A4
S31508016E802B676B6E9A0103D4D5F884309B060AD515
S31508016E9038461CF0FDFF022C08D13046BDE8F84003
S31508016EA000211CF0D1BFD5F88430EAE7F8BD00BF50
S31508016EB0004000500060005010B50C4608B900F0BB
S31508016EC007FD074B21461B783BB1064B984204D870
S31508016ED00120BDE81040FFF7AFBF0220F9E700BF68
S31508016EE000340020005A62020278034B0121002077
S31508016EF01A70FFF7E1BF00BF00340020012318B163
S31508016F00034AC2F8BC3070474FF05022F9E700BF78
S31508016F10006000504FF0004238B5254B5A664AF6D4
S31508016F20CD33244AD2F89440C2F8903004F00104D3
S31508016F3040BB136C13F00103FBD15268D20717D576
S31508016F4001211D4A51601B491C4AC86BC5070DD44E
S31508016F50934209D107251CB1164B194AC3F890204B
S31508016F6024F028FC284638BD0133EEE79342F1D0D8
S31508016F700025F0E70131D36B13F0080305D08142F0
S31508016F80F8D1E7E700210D48F5E78142E2D0202153
S31508016F90094A51630121A2F5805251600549074A00
S31508016FA0486B8006E2D49342D4D00133F8E700BF98
S31508016FB000900050004009500060095040420F00FF
S31508016FC03254FFFF4FF0004238B5164B164C5A663D
S31508016FD04AF6CD33D4F89450C4F8903005F001053B
S31508016FE0236CDB07FCD4236A027823F0700343EA97
S31508016FF0021323628278037943EA0223A362C278E1
S315080170004379407843EA0223E362FFF777FF0120D9
S31508017010FFF780FF15B1054BC4F8903024F0CAFB81
S31508017020012038BD00900050004009503254FFFF3E
S3150801703010B51CF046FF202341F20202036100232A
S31508017040C360836042614FF4A022074983614262AB
S3150801705000F50052C36103628362C3624363036539
S31508017060D164036310BD00BFFF3F0D0370B505462C
S31508017070144639B93148854214BF08465420FFF7EA
S31508017080AFF90146AB6813F0010F6B682ED0B1FB5F
S31508017090F4F4D90704F1FF344FEA046405D42B69E3
S315080170A023F07F4323432B6170BD282128461CF01A
S315080170B004FFAB6C9A0715D1AB6CDB0714D4AB6C28
S315080170C013F0020F14BF0626002628461CF0F9FE07
S315080170D02B69314623F07F4323432B61BDE870407A
S315080170E01CF026BF0526F0E70926EEE7AB6803F094
S315080170F0E003402B1BD004D8DBB1202BD4D10823C5
S3150801710004E0602B17D0802BCED1012363434901BC
S31508017110B1FBF3F10A4A2039284602EAC1020121E4
S315080171201CF0CBFE2A63BDE870401CF0C6BE0623E0
S31508017130ECE71023EAE70423E8E700BF0000045A56
S31508017140F8FF7F00F8B5436804460E460D691BB182
S3150801715040F6FF711CF0B1FE2046FFF769FF226970
S31508017160737BB17B22F087020B43134343F0800301
S3150801717023611DBBA368F27B23F00303134343F08A
S315080171800103A3606369327B23F00F031343636131
S31508017190D6E901122046FFF769FF052120461CF0B2
S315080171A0AAFE28211CF089FE3378A3631CF085FE0C
S315080171B0A36CDB4313F4405FFAD1F8BD2369297840
S315080171C023F0F8030B43297FEA7B43EAC1132979A4
S315080171D043EA4113697A43EA011343EA82132361B5
S315080171E0E068D5E9053720F0F0403B4320F47020EC
S315080171F00343287B697B43EA802343EAC133E3607F
S31508017200A368F07B23F00303034343F00103A36060
S315080172106B88A06803F4C0430343A360A368687935
S3150801722043EA8023A360AB79EF79606A1B013F02C9
S3150801723003F0700307F4E06720F4772020F4EE608A
S315080172403B430343287A000300F4E0400343687F85
S31508017250000400F47020034363626369307B23F002
S315080172600F03034363616B89A36179B10B4B9C429D
S315080172708ED1AB7B0A4903F00F034B66002A87D0F0
S315080172802B7C074A03F00F03136681E7002A3FF4B4
S315080172907FAF024B9C427FF47BAFF1E70000045AB3
S315080172A000900350072A2DE9F041154698464FF0FC
S315080172B0030401F003072DD89600B44000FA06F23C
S315080172C021461C481CF039FE21461B4807FA06F2DE
S315080172D01CF033FE194B1A499DF81800B8F1000F36
S315080172E018BF1946012303FA05F50D60154B164912
S315080172F0002818BF0B461D60144B9DF81C00C3F8E7
S315080173002054103103F22443002818BF0B461D6090
S31508017310BDE8F081A2F10806B600B44000FA06F20B
S3150801732021460B481CF009FE21460A4807FA06F2CF
S31508017330CEE700BF00C4035008C4035010D403505D
S3150801734010E4035014E4035014D4035000E003502E
S3150801735004C403500CC403502DE9F04105460F46F9
S315080173601E4690464AB101233022194C8B4002FB36
S31508017370004436B304F5825423600F21072F05EB29
S31508017380450388BFA7F108044FEA0313114895BFBF
S31508017390BC00A40004330C3308FA04F2A1401844D3
S315080173A01CF0CBFDB8F1000F09D101233021084AA1
S315080173B0BB4001FB05223EB102F582521360BDE8CE
S315080173C0F08104F50154D7E702F50152F6E700BF4B
S315080173D000C0035030C0035010B5012104462020D7
S315080173E0FEF7DEFF01212120FEF7DAFF0122114B0C
S315080173F05A60227812069A606178A27842EA0142B6
S315080174009A61FF229A6200229A631A644FF0004237
S315080174105A654FF0FF324FF0806103F500531A6544
S31508017420054AC2F88011E3781B01DBB282F81A33E8
S31508017430116010BD0000045000E100E04FF4003275
S31508017440054B9A6641F6713203F51C33DA6301225C
S3150801745003F50053DA6070470090005041F6713227
S315080174600121064BDA6303F50052D1600022DA6383
S315080174704FF40032A3F518339A667047000003509B
S31508017480CB784A7810B55B010C7843EA82030A790E
S31508017490234343EA02130C22424302F1B042136327
S315080174A0012C02BF8A78024B43F8202010BD00BF89
S315080174B0EC80035008B54FF0B0435A686AB958B121
S315080174C05B680BB11CF048FD01210D4B59601CF09E
S315080174D043FD4FF0B043D96008BD5B680BB11CF0A2
S315080174E03BFD0028F0D11CF037FD4FF0B0430222D6
S315080174F0DA601CF031FD0122024B5A60ECE700BF4D
