:020000040801F1
:10200000C00A002045700108D71B0308D71B03082E
:102010001F0F0308D71B0308D71B0308D71B030890
:10202000D71B0308D71B0308D71B0308D71B0308BC
:10203000D71B030830AF03080D1C0308D71B030888
:10204000D71B0308D71B0308D71B0308D71B03089C
:10205000D71B0308D71B0308D71B0308D71B03088C
:10206000D71B0308D71B0308D71B0308D71B03087C
:10207000D71B0308D71B0308D71B030869350108C2
:10208000D71B0308D71B0308D71B0308D71B03085C
:10209000D71B0308D71B0308D71B0308D71B03084C
:1020A000D71B0308D71B0308D71B0308D71B03083C
:1020B000D71B0308D71B0308D71B0308D71B03082C
:1020C000D71B0308D71B0308D1D70208D71B030867
:1020D00011E202084F9B03084B9B030801DA020838
:1020E0005B9B0308539B0308E9E10208579B030825
:1020F00051E2020821BC0208C1E20208E5BD020863
:10210000D71B0308D71B0308D71B0308D71B0308DB
:10211000D71B0308D71B0308D71B0308D71B0308CB
:10212000D71B0308D71B0308D71B0308D71B0308BB
:10213000D71B0308D71B0308D71B0308D71B0308AB
:10214000D71B0308D71B0308D71B03080000000098
:10215000002370B5404C05468AB0E36318B100888F
:1021600023600BF04FF93D4827F03CF83C4E3D4BC7
:10217000304633603C4B736022F076FB00213046E2
:1021800015F014FD32A3D3E90023A062C4E90623AD
:1021900022F075FBD4E9062319431043C4E9060174
:1021A000CDE900014FF0FF334FF0FF32A06A27F076
:1021B00094F802224FF0FF31A06A27F093F8012033
:1021C0000AF0A2FE4FF4007300222849A06A27F00B
:1021D000DCF8B0F5007F38D100239422CDE9073335
:1021E00009933C23CDE9033205939623A06A03A902
:1021F000069315F0F9FD35B3287C0BF0BBFA0546C4
:10220000F0B9A06A27F0A2F90BF062FA0AF05EFEBC
:1022100020B14FF48070002107F074FE0AF066FED2
:1022200020B14FF40060002107F06CFE22F0EAFBC1
:10223000012015F00FFD0E4A0E49A06A22F012FB94
:1022400028460AB070BDFF20D7E70725F8E700BF92
:102250000DD5015520000000D0170020690345EC82
:10226000F42700208DCD010804280020F42500204B
:102270000D4803084D4803080348044B834202D02D
:10228000034B03B1184770475C1700205C17002010
:1022900000000000064B0749C91A891048BF0131E8
:1022A000491003D0044B0BB101481847704700BFD9
:1022B0005C1700205C1700200000000010B5064CE1
:1022C000237843B9FFF7D8FF044B13B10448AFF3A9
:1022D00000800123237010BD942F00200000000017
:1022E0006CF7030808B5054B1BB105490548AFF36A
:1022F0000080BDE80840FFF7CDBF00BF0000000030
:10230000301A00206CF70308A3F5803A704700BF2D
:10231000174B002B08BF134B9D46FFF7F5FF00211D
:102320008B460F461348144A121A27F0CBFC0E4B6B
:10233000002B00D098470D4B002B00D09847002071
:10234000002104000D000D48002802D00C48AFF316
:1023500000801CF091FB2000290005F051FB1CF0CF
:10236000BFF900BF000008000000000000000000EE
:10237000C00A00205C170020AC30002000000000E4
:102380000000000008B5124BA8220021184627F0D3
:1023900099FC03220346026142610E480E4A98618D
:1023A0004FF48061DA61002219629A625A62DA623D
:1023B00018660A485866996609491A67DA665A67BC
:1023C00011F8010D98540132102AF9D108BD00BF4F
:1023D000B4160020E0AB0308B4120020B40E0020B5
:1023E000F9AB03082DE9F84FDFF88080824698F8B2
:1023F00000308946532B164601D0FFF7C3FF18273C
:1024000007FB0A873D6FD7F86CB05D452BD9BC6ED2
:10241000796E641BB44228BF34464846294422469C
:1024200027F05BFCBB6E2544AB4208BF0025A144EE
:10243000361BABEB050B5E4528BF5E4656B1182335
:1024400003FB0A83596E32462944484627F045FC6F
:102450003444354424B1182303FB0A88C8F870506B
:102460002046BDE8F88F0024E3E700BFB416002043
:10247000F8B5182700FB0775124B0E461D4407FBE5
:102480000033DB6A1446012B0AD0022B14D023B987
:1024900028461DF065FC844208D900242046F8BD7A
:1024A00028461DF05DFC844228BF04462246314682
:1024B00028461DF05EFCF1E72846BDE8F8401DF017
:1024C00073BC00BFB4160020F8B50B4B04461B7854
:1024D0000D46532B164601D0FFF754FFEFF311873B
:1024E0004FF0200181F31188324629462046FFF73C
:1024F000BFFF87F31188F8BDB41600202DE9F04125
:10250000164C1E4623780546532B8846174601D0A5
:10251000FFF738FF022D1DD8EFF3118C4FF020018B
:1025200081F3118865B1182005FB000344F803808E
:10253000E2180023576000FB054216629362536263
:10254000182303FB0544069BE3628CF311880020EB
:10255000BDE8F0814FF0FF30FAE700BFB41600206D
:102560002DE9F843154E1F4633780546532B89460F
:10257000904601D0FFF706FF022D1BD8EFF3118222
:102580004FF0200181F3118855B11824002304FB7A
:102590000564C4F86090C4F86480A7662367E366A6
:1025A000182303FB0566089B736782F311880020DC
:1025B000BDE8F8834FF0FF30FAE700BFB416002003
:1025C00010B50A46044619B1024B00211B68984712
:1025D00010BD00BFC00A00200E4B0340B3F1607F66
:1025E00006D1B1F5885F14BF6FF0860000207047F8
:1025F000B3F1707F0BD101F4E043B3F5005F06D176
:1026000011F4E06F0CBF6FF08600002070476FF090
:10261000860070470000C07F8A42F8B506460C4627
:1026200000F0DB806F4922F4FF7323F001038B423B
:102630000ED06D4B22F0FF01994209D06B4822F475
:102640007F7323F00303834202D0694B994228D160
:10265000684B24F0FF0199420FD114F0FF000BD01A
:10266000654B40F00070984240F0B98082EA040067
:10267000FF288CBF00200120F8BD5B4B9942ECD0B5
:10268000A3F588539942E8D024F4FF7323F00103A3
:10269000B3F1062FE1D056488142DED053498B4238
:1026A000DBD004F0FE43B3F1A06F14D102F0FE437F
:1026B000B3F1A06F40F0938082EA040333F47E13F9
:1026C00040F08D8014F40040D6D0C4F30540C2F32E
:1026D00005429042CDE7B3F1407F6AD102F0FE435C
:1026E000B3F1407F7BD182EA040535F47E1576D1C3
:1026F00031462046FFF770FF002870D13F4B12F49F
:102700007C1703EA02031BD0B3F1607FC2F30547D5
:102710003FD13B49D3B243F000738B423DD003F12C
:102720007E43043B0F2B01D83649CD5C14F47C1F4B
:10273000C4F3054333D1BD4214BF002001209BE701
:10274000B3F1607F0DD12E49D3B243F000738B42B9
:102750001DD003F17E43043B0F2BDAD82A49CF5C0E
:10276000D7E7B3F1707FE1D106F4E043B3F5005F42
:1027700003D10127C6F302239F4006F4E043B3F5DB
:10278000005FD3D10125C6F302218D40CEE710278B
:10279000BFE7B3F1707FC9D1EFE71025C6E712F4A8
:1027A0007C1F01D1AB4218D022047FF565AFBB423C
:1027B0005FE7B3F1106F12D124F01F6020F4702096
:1027C00068B902F0FE43B3F1106F7FF455AF0F48C4
:1027D000104040F01060A042AEE701204CE700201E
:1027E0004AE700BF000200060013000600040006CE
:1027F0000009000600030006FF0000020000C07F81
:1028000003000002FAAB0308FAAB03080000FFF66E
:102810002DE9F8431746002288461C4600F05AFA74
:10282000054688BBD8F80060B6F8009009F4E0438C
:10283000B3F5804FF36808BF27F0010737EA0303B9
:102840001AD10CB3254B24F0FF029A421FD114F089
:10285000FF0304D0224A43F00073934232D0224651
:1028600048463169FFF7D8FE074668B92246484610
:102870007169FFF7D1FE70BB6FF08405002330460D
:10288000C8F800301EF031F92846BDE8F883154B32
:102890009A42DCD0A3F588539A42D8D024F4FF732F
:1028A00023F00103B3F1062FD1D00F498A42CED0D5
:1028B0000E4A9342CBD004F0FE43B3F1407F04D1E3
:1028C0002304CCD56FF08605D8E7B3F1A06FF7D01D
:1028D000034B9C42C2E73D46D6E700BF000300061B
:1028E000FF000002001300060009000600040006B5
:1028F00038B500F0FE43B3F1407F04460D4602D0E8
:102900006FF0860038BDFFF767FE0028FAD114F497
:102910007C1F12D0C4F30543032B137022D9284A1D
:102920002240B2F1607F3DD1264AE4B244F0007407
:1029300094422BD1102BE5D9E2E7214B2340B3F190
:10294000607F15D11F49E3B243F000738B4202D17F
:1029500010231370D6E703F17E43043B0F2B04D9F9
:10296000002313706FF08500CCE71749CB5CD3E7E9
:10297000B3F1707FF4D101F4E043B3F5005FEFD120
:102980000123C1F302218B40DBB2C5E704F17E4491
:10299000043C0F2CB4D80D4A125D9342B0D8142BCE
:1029A000B0D9DFE7B2F1707FAAD105F4E042B2F509
:1029B000005FA5D10122C5F30225AA40EDE700BFC3
:1029C0000000C07F03000002FAAB0308FAAB030863
:1029D00037B50B4D0C462B787BB100230A4601938B
:1029E000014601AB281D1EF07CFB20B9019BA342D0
:1029F00018BF6FF0930003B030BD6FF08800FAE7A6
:102A0000481A00202DE9F04F9B460023924601F022
:102A1000FE4297B0B2F1806F0E46DDE92078DDF816
:102A20008890089305D018461EF05FF86FF0860472
:102A30003CE00B464FF4807208A9FFF7E9FE04461C
:102A400018B108981EF051F830E0DDF820C00DAC48
:102A50006546CDE914000FCD0FC495E80700BCF81A
:102A6000003084E8070003F4E042B2F5005F20D1B3
:102A700013F4E06FC3F302211BD0384826F48072B0
:102A800082420AD000F50070864206D03448864261
:102A900003D0A0F53F4082420BD101258D40102D7F
:102AA00012D960461EF021F86FF0830426460025F7
:102AB00048E042F20402934202D12A4B9E420BD0DC
:102AC000294B9E4244D10D25A84507D260461EF0F1
:102AD0000CF86FF08904E9E70C25F5E7294609A809
:102AE000FFF776FF04460028ABD10898D0E9091219
:102AF00087B307EB050C0E9CA8EB0503240A93D1C2
:102B00000DF12408CDE90539CDE903BC3346CDE903
:102B1000015ACDF800800DA801F072FE044614F1B0
:102B2000860F08988ED01DF0E0FF0646002CBDD120
:102B300090B925B12A464146384627F0CEF8D9F853
:102B400000301D443046C9F8005017B0BDE8F08F82
:102B50000025CAE7BC46CEE70446A7E70010C0043C
:102B600000FF4004000180040013C00408B500F019
:102B70005FF8064B5A7812B10022C3E90122BDE882
:102B800008400C210148FFF71BBD00BF481A002078
:102B900070B50C4D2B7873B91EF0A1FA044668B9D4
:102BA00002230126C5E90100AE706B7000F038F811
:102BB000044618B92E700024204670BDFFF7D6FFDA
:102BC000FAE700BF481A002000F100420332022A4F
:102BD00038B504460D4609D82C21104B01FB0233B1
:102BE0009A68824211D06FF08B0010E001211DF035
:102BF0002EFF78B1094B9A68944206D05A6B9442E2
:102C000006D01A6E9442EED1583300202B6038BDA6
:102C10002C33FAE76FF08700F9E700BF541A002061
:102C20000122024B002083F884207047541A0020B0
:102C300070B5094C00252646042120461DF018FFDA
:102C4000013520461DF0B6FA032D04F12C04F3D112
:102C5000002386F8843070BD541A0020F8B51B4C50
:102C6000064694F884300F464BB300252346294688
:102C700093F820001A46B8B125B91A7912B1022882
:102C800008BF1D460131032903F12C03F0D115B90A
:102C90006FF08C0015E0042128461DF0E9FE68B9AC
:102CA00028461DF087FA2A460020094B141BA41061
:102CB0005C4304F10044033C34603A60F8BD6FF0BB
:102CC000880000233B603360F8E700BF541A0020FF
:102CD000A38B2EBA2DE9FF4100230B60394B8046B0
:102CE00093F884300D461646002B68D0FFF76CFF32
:102CF0000446A0B92EB9286804B0BDE8F0411DF023
:102D0000E1BE012E04D00024204604B0BDE8F081CD
:102D10000521286804B0BDE8F0411DF0A9BE10F1FE
:102D20008C0FF1D1294601A8FFF798FF044600282F
:102D3000EAD101232F68CDE90200C7F808803846A0
:102D40007B6003AA02A91DF07BFF044688B1DDE980
:102D500002011DF073FF2D68042128461DF088FE36
:102D600028461DF027FA14F18C0F08BF6FF0870476
:102D7000CAE7DDE9021238461DF0A7F90446DDE98D
:102D800002011DF05BFF002CE5D1022138461DF049
:102D90006FFE04460028DED12868C368D90444BF0A
:102DA00043F48063C360C3689A0444BF43F4006380
:102DB000C360002EA0D0012EA5D10521AAE76FF097
:102DC0008804A1E7541A002030B40D4D2C681C6013
:102DD0006C685C6000249C605468DC6014881C8211
:102DE00054885C82D4685C6114699C61526930BC0F
:102DF000DA6119620A46014603F1240026F06DBF2C
:102E00000AAC03082DE9F843232904460F469146EE
:102E10009846089E04D86FF098052846BDE8F883C8
:102E20000822194926F024FF05460028F3D1A3689B
:102E3000002BF0D1216A243F8F42C8F80010EAD35A
:102E4000B1F5005FE7D271B9C9F80000E3687360BB
:102E5000238A3380638A73806369F360A369336173
:102E6000E3697361D9E701201DF04AFFC9F800004A
:102E700030B1D8F8002004F1240126F02EFFE5E758
:102E80006FF08C05C9E700BF0AAC0308024A03498A
:102E900003480AF075BF00BF14AC030838AC030840
:102EA00080AC030838B51DF0FFFF0025084B094C26
:102EB0001A682368C31A2AB123B15169994203D30E
:102EC000C91A5161206038BD55615B1A9268F2E7FA
:102ED000E41A0020E01A0020C38870B504460D46AD
:102EE0003BB900F0B1FC8542064602D21EF004F860
:102EF00035460E4965610B688BB90C60A3600DE027
:102F0000AD1A9A68184665616AB113465A69AA42B1
:102F1000F6D930B18460521BA3605A6170BD0020A5
:102F2000F4E70C60F7E79C60A260F7E7E41A002082
:102F300038B5134D2B685B6993B1124A02201468AF
:102F40001C441DF0B8FF204600F0BCFA00230E49D7
:102F50002A680B70D088800709D501230B7038BD13
:102F600002201DF0A8FF022000F0F6FAEEE79268BA
:102F7000002AF4D050690344012BEBD9EFE700BFDE
:102F8000E41A0020E01A0020962F002070B51646A3
:102F90009DF81420C0E903360271049ABDF8183078
:102FA0000260002204460D468260C380EEB91DF027
:102FB0007BFF2844A0619DB12E461EF0A0FD054672
:102FC000FFF770FF31462046FFF786FF104B1B6866
:102FD000A34201D1FFF7ACFF28461EF094FD02E0AA
:102FE000E36865617BB9002070BD1DF05DFF304472
:102FF000A061002DE0D1E3686561002BDDD02046A3
:1030000021689847D9E7204621689847EBE700BF39
:10301000E41A002000220C490B687BB183420AD1DC
:1030200083687AB1936083681BB15A6941690A4425
:103030005A61002070471A469B68EEE70028EFD0DF
:10304000022070470B60EEE7E41A002070B51EF016
:103050005DFD144E05463478FCB9134B1C60134BD0
:103060001C60134B1C8000F0EBF901201DF023FFC6
:103070001DF03CFF0F4B0246186020B928461EF099
:103080004BFD232070BD234640F2E7310A481BF078
:103090008FF90A4B18600123337028461EF03CFD5F
:1030A0000020EFE7972F0020E41A0020E01A00200C
:1030B000402F0020E81A002018FCFFFFDC1A002037
:1030C00070B5044640B31EF01AFD144E0546FFF7D6
:1030D000E9FE3068A04209D02046FFF79BFF044676
:1030E000B0B128461EF00FFD204670BDFFF792FFDD
:1030F00004460028F5D133683BB9022000F014FAE9
:1031000028461EF000FD0024EEE7FFF711FFF7E769
:103110003368002BF4D1F0E72224E5E7E41A00201D
:1031200038B50C460546A8B1A1B100230B701EF0BE
:10313000EDFC0121084B1B6833B91EF0EDFC0020AB
:1031400038BD9D4204D121702278002AF9D0F4E7DD
:103150009B68F1E72220F3E7E41A0020F8B5064661
:103160000F461EF0D3FC00250446124B1B6823B902
:1031700020461EF0D1FC1B2011E05A691544DA8864
:10318000B2420DD11DF090FE0B4E3368C01AA8421A
:103190000AD3002320463B601EF0BEFC0020F8BD91
:1031A000FF2EEFD09B68E2E71DF07EFE33682B44D4
:1031B0001B1AEFE7E41A0020E01A002008B5074BBD
:1031C000187848B11DF062FE054B1B689B69C01A58
:1031D00002288CBF0020012008BD00BF962F0020D0
:1031E000E41A0020014B1868704700BFE81A00205D
:1031F000F8B50C4B05461B680E4683420FD30024DE
:1032000040F2E7302146084B4FF47A721F680023E2
:10321000E5FB07011BF0CCF830602046F8BD21200B
:10322000FCE700BFDC1A0020E81A0020F0B51F46BA
:10323000002387B00C46164605468DF8133050B370
:103240000DF11301FFF76CFF9DF813302BBB2046E7
:1032500005A9FFF7CDFFE0B9114BE8831B682846AD
:103260005C434FF47A73B4FBF3F203FB1244191B73
:1032700089B2994208BF0021BDF83430A983059A6C
:1032800002939DF830301146CDE900733346FFF7C5
:103290007DFE07B0F0BD2220FBE70220F9E700BF6A
:1032A000E81A0020014B1868704700BFDC1A0020A4
:1032B0000F4B10B51A689AB14FF47A71531E13422E
:1032C000A0FB01010ED1B2FA82F2C2F11F04531C1D
:1032D000D243E04001FA03F3184321FA02F2024319
:1032E000104610BD00231BF063F80246F8E700BF4C
:1032F000E81A0020C2072DE9F04704460BD5474ADB
:10330000138801339BB21380FFF7CCFD444B1B683D
:103310000BB1FFF70DFEA3077ED51EF0F7FB4FF0B4
:10332000000905464E46FFF7BDFDC8463C4F3C68C8
:103330000CB163698BB100223A4B012E1A7003D194
:1033400019F0020F18BF1E70002C61D0FFF7F0FDBE
:103350002846BDE8F0471EF0DFBB23465A693AB95C
:103360001A792179914288BF1C469B68002BF5D1C0
:1033700028461EF0D1FB2569DDB11DF095FDA2693F
:10338000A0EB02094FEAE9734D4578EB030311DA2C
:1033900023691344A361E368B4F80690013613B1BE
:1033A0002046216898471EF0B1FB0546FFF77AFDDD
:1033B000BDE7A9461EF0AAFB82462046FFF72AFE7B
:1033C00050461EF0A9FB2369002BE4D0A38BB5EB7C
:1033D000090533B1E28B13449BB2B3F57A7F0FD268
:1033E000E3831EF093FB814629462046FFF774FDD8
:1033F000A369226948461344A3611EF08DFBCAE706
:10340000A3F57A73E383A369013D013BA361E8E778
:10341000022000F089F89BE7BDE8F087402F0020EC
:10342000E41A0020952F002010B51EF06FFB034B0F
:103430001C781EF071FB204610BD00BF952F0020A8
:103440001FB500241C4B012118689A880290D3F8FC
:1034500006009B7A00903E20ADF80C208DF80430D9
:1034600002F016FE02A88DF808408DF80C4003F01B
:10347000EFFC694601208DF8004003F0A5FC4FF0F9
:10348000B04240F2FF31936923F47F7323F00303CA
:1034900093610A4B5961936A13F00803FBD11362DD
:1034A000012003F0ABFC4FF40042054BC3F8802130
:1034B0001A6004B010BD00BFAEAC03080020005875
:1034C00000E100E010B504461EF019FB4FF0B042D9
:1034D000936A1907FCD4136A116C5269520604D41A
:1034E000CA1A032A01D899420ED1E21A022A98BFB9
:1034F000DC1CB4F1FF3F38BF013C4FF0B0431C640B
:103500009A6942F040029A611EF0FDFA054A13786A
:103510003BB14FF0B041CB6B43F00203CB630023D0
:10352000137010BDDE0C0020820700F001030AD5E5
:103530000121084A43F0400311704FF0B041CA6BBB
:1035400022F00302CA634FF0B0418A6922EA030302
:103550008B617047DE0C0020830742BF4022014B85
:103560005A6170470010005810B51EF0CFFA4FF0A6
:10357000B04304465B695A06074A03F0010003F0B2
:10358000510348BF40F002005361FFF7B3FE2046ED
:10359000BDE810401EF0C0BA002000580A4B10B51C
:1035A000D3F8403203F00303013B012B0BD81EF08C
:1035B000A6FA04460121022000F0CCF82046BDE81E
:1035C00010401EF0A0BA10BD00800050054B1A78C4
:1035D0002AB95B78002B0CBF032002207047012022
:1035E000704700BFA22F00200329F8B598BF124BE7
:1035F00005460E468CBF00245C5C032805D8DFE836
:1036000000F002080B0E44F002040C4B1F684FB987
:10361000F8BD44F00804F8E744F02004F5E744F06E
:103620008004F2E77B681A68144203D031462846CA
:103630005B6898473F68EAE7B9AC0308181B0020AD
:1036400038B5104D2B78ABB10F4C23781BB100F07F
:10365000ABFB0023237000201DF05AFC0B4C50B133
:1036600000F0F4FB0023012120782B70FFF7BCFF52
:103670000123237038BD0122054B1A702278054BB7
:103680001A70F7E79D2F00209B2F0020A42F002009
:103690009E2F00209F2F002010B51EF030FA064B01
:1036A00004461B781BB1BDE810401EF02CBAFFF792
:1036B000C7FF2046F7E700BF9A2F0020094A13787A
:1036C00030B101331370084B1B78012B03D87047BE
:1036D000013B13707047054B1B780BB9FFF7B0BF68
:1036E000704700BFA22F0020A42F00209E2F002093
:1036F00070B51EF004FA124E054633789BB9FFF7F9
:10370000A5FC044620B128461EF0FDF9204670BDF8
:103710000C481EF059FAFFF741FF0B4B1C60FFF7F6
:1037200061FD0A4B186000F02BFA1DF0F3FB084B0B
:10373000002418600123284633701EF0E4F9E5E701
:10374000A52F0020181B0020EC1A0020141B0020BD
:10375000F01A00202DE9F843284A0138135C39B1EA
:10376000274F013339781354012904D8BDE8F88371
:10377000013B1354FAE7FFF729FF0128044635D827
:103780001EF0BDF9DFF88480054698F8003013B3C9
:103790001C4E33781BB9012232701B4A1370DFF8BC
:1037A000709099F8003023B100F0FEFA002389F8F8
:1037B000003028461EF0A7F901201DF0A9FB1EF0DD
:1037C0009EF9337805461BB100F040FB00233370AF
:1037D000002388F8003028461EF095F93878A0427A
:1037E000C4D02146FFF700FF3C70BFE70329F5D1A5
:1037F0000228F3D11DF092FBF0E700BFA22F0020BA
:10380000A42F00209A2F00209E2F00209D2F002003
:103810009B2F002010B504461EF071F9002C0CBF40
:10382000FF210121064A13780B44DBB21370B3FA6F
:1038300083F3BDE81040034A5B0913701EF063B9BF
:10384000A12F0020A02F002038B51EF058F9094BF9
:1038500005461B78012B04D81EF055F9002420469C
:1038600038BD054B1C6800F03BFB044428461EF0A5
:103870004AF9F4E7A42F0020EC1A002038B5416083
:1038800004461EF03CF90546214604481EF09FF907
:103890002846BDE838401EF036B900BF181B00208E
:1038A000054B1B685843054B00F5742000F23F2080
:1038B000B0FBF3F0704700BF141B002040420F0024
:1038C0002DE9F04F85B0EFF3108772B6AFF30080AB
:1038D0001EF004FA00286FD0804EDFF82C82337877
:1038E00023B10020FFF7EAFE00233370FFF76EFEDE
:1038F0000446002867D0841EE4B2012C6AD9FFF781
:1039000065FE01280546764CDFF8009200F28C80B7
:103910002078854240F0C680207800F0CBFA99F8F4
:10392000003013B16F4B1B782370AFF3008007B9E1
:1039300062B6EFF3108772B66B4B1A7852B1002261
:103940001A70684B20781B78984203D101212170AE
:10395000FFF74AFE6548FFF7B3FB1EF0CEF90546B8
:103960000028BCD1624BDFF89481187098F80030C1
:10397000ABB189F80000DFF88C9199F800301BB1E9
:1039800000F012FA89F8005000201DF0C1FA00285A
:1039900000F09B8000F05AFA002388F8003033785A
:1039A00023B10020FFF78AFE002333700021207826
:1039B000FFF71AFE00232370AFF3008007B962B649
:1039C00005B0BDE8F08F3378002B98D0FFF776FE76
:1039D000347094E7002003A9FFF7C0FB04460028D9
:1039E0008DD1D8F80030039A9A4205D80120FFF70C
:1039F00065FE0123337082E73E4B1D6800F070FACC
:103A0000039B05449D42F1D200F082FA82000399A3
:103A100042F0020292B2CDE900422346364A491BE7
:103A200032481DF0AFF96AE7344BDFF8C4A093F8D1
:103A300000B0BBF1000F25D100F046F92078854297
:103A400030D19AF800307BB92C4D2B78002B7FF4C5
:103A500063AF2B4B1B7823B900F0A0F90122294B4F
:103A60001A7001232B7057E7022DEDD18AF800B0B0
:103A700015E02378022B25D100238AF8003025F0A9
:103A8000A4FD1FE0207885420CD19AF80030002B6D
:103A90003FF442AF022DD7D100238AF8003025F041
:103AA00094FDD1E70023DFF848A08AF8003099F8A8
:103AB000003013B92946FFF797FD9AF800302570BA
:103AC000002BD6D1012DBFD826E7012000F0F2F956
:103AD00007B962B6EFF3108772B655E79C2F002046
:103AE000A42F00209F2F0020982F0020F41A0020E0
:103AF000A02F0020EC1A0020993601089D2F0020ED
:103B0000A12F00209B2F0020F01A00209E2F0020C4
:103B100010B51DF0F4FF0022044B1C781A701DF044
:103B2000F2FFFFF781FC2043C0B210BD992F0020A7
:103B300073B5114E0446337883420FD04FF40073AF
:103B40000E4DADF8043058B101A802F085FF4020B9
:103B5000FFF7A6FE2B68181A2860347002B070BDFB
:103B60008DF8050001A802F077FF4020FFF798FECE
:103B70002B681844F0E700BFDF0C0020501B00202A
:103B800073B5002401A88DF8044003F017F820460F
:103B9000FFF7CEFF404A4149136F414803F0070346
:103BA0000B60D2F800113F4D01F0030101604FF4AA
:103BB00000203D49032B48664FF40030486601F56C
:103BC00098318969C1F3400129705DD0D2F8203164
:103BD00003F00303981E43424341D2F82421334C9F
:103BE00002F00702022A08BF43F001034FF4C87035
:103BF0002370FFF755FE00222D4B2E4918602E4EE4
:103C00000B680132D2B20A2A46F8040BF9D10344F8
:103C100000EBC00003440B602B78284D63B323787E
:103C20001D4A3BB9D2F8003103F00303591E4B4241
:103C30004B412370D2F8003103F00303022B25D04F
:103C4000032B26D0012B17D103F096FA024698B128
:103C50001B4B1C4EDC6800231946C4F30B040134D3
:103C600004EB84040138E4FB06011AF0A1FBFFF722
:103C700017FE2B6803442B601F20FFF711FE2B68F3
:103C800003442B6002B070BD0123A6E703F08EFA57
:103C9000DCE71DF0ACFFD9E700800050541B00208A
:103CA000581B0020A92F002000900050AA2F0020B0
:103CB0001C1B0020201B0020241B0020501B002068
:103CC00000C0015040420F00074A0849D2F8203195
:103CD00003F003030B60D2F82431054A03F0070315
:103CE00013601DF01EBF00BF00800050601B00204D
:103CF0005C1B00200E4B1A78C2B100221A700D4BCB
:103D00001A6F22F0070242F001021A67D3F820214D
:103D100042F00302C3F82021D3F8242122F0070245
:103D200042F00302C3F8242103F010BA704700BF29
:103D3000A82F00200080005008B5134B1B7813B348
:103D400002201DF0C4F8F0B1FFF738FAD8B10F4BDC
:103D50009A6DD10302D5DA6D920714D49B6DDB07FF
:103D600011D401220A4B1A701DF090F8094B0A4A2F
:103D70001860136F23F0070343F003031367BDE8D4
:103D8000084003F0E3B908BDAA2F002000C000508E
:103D9000A72F00204C1B0020008000500122014B67
:103DA0001A707047A82F0020F8B51F4B1B78002B06
:103DB00039D01E4C2378B3B91D4B9A6DD10302D56F
:103DC000DA6D92072FD49B6DDB072CD41DF05EF8C3
:103DD000184B194A1860136F23F0070343F00303CD
:103DE000136703F0B3F91DF051F8124B134D1B6824
:103DF000134EC01A2B78134F56F8232046F8230091
:103E0000111A3A681048521A0A213A600932B2FB74
:103E1000F1F20133DBB20260B3FBF1F201FB1233CA
:103E20002B7000232370F8BDAA2F0020A72F00209D
:103E300000C000504C1B002000800050A62F002026
:103E4000241B0020201B00201C1B002008B51DF097
:103E50006BFE124B12491A6F096822F007020A43DF
:103E60001A671049D3F82021096822F003020A4397
:103E7000C3F820210C49D3F82421096822F0070255
:103E80000A43C3F82421094B1B7813B10122084BC4
:103E90009A62BDE8084003F059B900BF00800050A5
:103EA000541B0020601B00205C1B0020AA2F002058
:103EB00000E0005002280AD003280BD001280CD1C2
:103EC000064A136923F00403136130BF70470020D2
:103ED00002F0CEBD002002F0EBBD704700ED00E027
:103EE000054B187818B1054B186800EBD000044B4F
:103EF0001B681844704700BFAA2F00201C1B00201D
:103F0000501B00200122014B1A707047AA2F00207D
:103F1000014B1878704700BFAA2F0020BFF35F8FB6
:103F2000074B5A6A22F480325A62D3F8942022F066
:103F30000102C3F89420BFF34F8FBFF36F8F704718
:103F400000ED00E070B52948294CFFF7E7FF8442F7
:103F5000284D294919D1D5F8C03023F0FF0343F08B
:103F6000A003C5F8C0304FF080430A68214D234EAE
:103F7000C5F8982043F0010301328442C5F89C60E3
:103F8000C5F8A0300A601ED00DE0D5F8C02020F0A2
:103F90001F03203B22F0FF0242F0A002B3F1005FBA
:103FA000C5F8C020E1D2164B0A68124823F01F035F
:103FB00043F00303C0F89820C0F89C30114B013245
:103FC000C0F8A0300A60BFF35F8F0522094BC3F829
:103FD00094205A6A42F480325A62BFF34F8FBFF383
:103FE0006F8FBFF34F8FBFF36F8F70BDFC0C00203E
:103FF000AC0E002000ED00E0641B00200300002058
:10400000CB0E0020E1FFFF3FF8B51446FFF786FF17
:104010001F2C27D90027C2062A4D1CBF20F01F00E5
:1040200020302A68CB06284B18BF21F01F01FCB2B4
:10403000A2422BD8D3F8C04020F01F0024F47F44C4
:1040400044F4807421F01F01C3F8C04040F0030025
:10405000C3F8982041F003010132C3F89C00C3F873
:10406000A0102A600020BFF35F8F0522164BC3F813
:1040700094205A6A42F480325A62BFF34F8FBFF3E2
:104080006F8FBFF34F8FBFF36F8FF8BDC3F89840AA
:10409000D3F89C40D3F8A06024F01F04A04226F07F
:1040A0001F0601D1B142DDD0B04201D8A14207D2F2
:1040B000D3F89840013724F0FF04C3F89840B6E7DE
:1040C0002820D0E7641B002000ED00E0BFF34F8FF5
:1040D0000549064BCA6802F4E0621343CB60BFF3A4
:1040E0004F8F00BFFDE700BF00ED00E00400FA05C0
:1040F00010B504461DF003FD024B1C601DF003FDCE
:10410000002010BD681B002010B51DF0F8FC034B0B
:104110001C681DF0F8FC204610BD00BF681B002085
:1041200013B5002301241A46194618460094FEF7D9
:10413000E5F9002300941A4619461846FEF710FACE
:104140000248FFF7D5FF002002B010BDC40A0020CE
:1041500007B5064B18689B8800906846ADF8043098
:1041600002F09AFD002003B05DF804FBBDAC03082B
:1041700013B50024064A6846536F43F001035367A2
:1041800000948DF8044002F0B7FC204602B010BD48
:104190000040005030B58BB06C46174D0FCD0FC4AA
:1041A0000FCD0FC495E8030084E80300134BD3F848
:1041B0004C2112031CD5A3F5FE431C884FF6FF7358
:1041C0009C4208BF8C248DF8194002F0D3FA204499
:1041D00080F308008DF81800094802F0D3FF684604
:1041E00002F0E8F9322002F041FB00200BB030BDB4
:1041F000D3F85041E4B2E6E7C4AC03080080E00F16
:1042000000F0490230B5094D87B001AC0FCD0FC4A5
:104210002B6801A8236020238DF8053002F0E2FA14
:104220000A2002F01DFB002007B030BDECAC0308F3
:104230006FF00403502110B50A480B4C13F0800FA7
:1042400003F1010207D12344432A83F800131346E4
:10425000F4D1002010BD03F00F03043B0344197692
:104260001346EBE700ED00E000E100E04FF4005200
:10427000034B00209A660322C3F86022704700BFF8
:104280000090005008B501F029F9C30708D501F0E6
:104290009FF9062804D00A28F5D101F0EBFBF2E7DC
:1042A0004FF40052034B00209A660322C3F86022A9
:1042B00008BD00BF00A000504FF40052084B10B5DD
:1042C0009A660322C3F860221CF096FE0446FFF7AC
:1042D000D9FF00280CBF20466FF0920010BD00BF30
:1042E0000090005037B5154D2B782BBB0093144B25
:1042F000019302AB13E9030001F048F84FF40052B8
:10430000104B9A660322C3F860221CF075FE044627
:104310001DF0B5FB40F000401DF0F6F8FFF7B2FFCE
:1043200028B1002C08BF0446204603B030BD002C45
:10433000FAD101232B70F7E70024F5E7AB2F00201B
:10434000971A030800900050012300F01F02A0F507
:1043500006200949A0F550604009934051F82020FB
:104360001A4341F82020054951F8202022EA03028F
:1043700041F82020704700BF801B00206C1B0020EC
:104380000121A0F506230E4AA3F550635B0900F056
:104390001F00814052F82300014342F823100949CD
:1043A000D1E90030034488680344C86809690344BC
:1043B0005B1802BFC2E90033C2E9023313617047E0
:1043C0006C1B0020801B00202DE9F04FA9B0039248
:1043D0001D4604460822339ECDE90401414021FADE
:1043E00002F34B40980702F1080218BF9B00202AF5
:1043F0001C44F4D18123B4FBF3F303EBC313E41A9D
:10440000734B04F506241B7804F55064002B3ED151
:1044100002F068FD074620B16FF0910029B0BDE8B9
:10442000F08F0146402208A825F04CFC4022394676
:1044300018A825F047FCDFF8B481DFF8B491C34633
:104440000BF10F0ACDF800A0102208A95B46D9F89D
:10445000000024F00DFD0022014608F1100808AF0D
:10446000914246D1CDF800A05B461022D9F8000059
:1044700018A924F006FD4FF0000A834618AFD34573
:1044800041D1544B9845DAD10122514B1A704FF06B
:10449000810A4FF00008DFF85CB1A4F50627A7F504
:1044A00050635B095BF8232004F01F01CA40D20768
:1044B0003DD4494A52F82330CB40DB072AD5B8F126
:1044C000000F08BFA0468123A7F6FF47B7FBF3F311
:1044D00003EBC313FF1A07F50624BAF1010A04F52A
:1044E0005064DAD1039BBBB1B8F1000F14D044463D
:1044F00019E057F8040BCDE90612FFF725FF079ADC
:1045000006990132ACE757F8040BFFF739FF0AF1BF
:10451000010AB4E7039B13B96FF08B007EE7B8F193
:10452000000F18BF4446349B00201C6076E7329B86
:1045300013B10023329A13600EB1002333601023AD
:10454000DFF8AC9000932A4600232146D9F80000FA
:1045500013F0B0F860BB32992A68204BC9B99A426F
:1045600006D02146D9F8000013F03CF90028D3D139
:10457000D5E90223DDE90410834208BF8A42A2D1B3
:10458000039B002BCFD06B68012BCCD16FF0840044
:1045900044E7102032999A420860E2D1002EE7D019
:1045A00033462146D9F8000018AA13F0D7F848B1CD
:1045B0000B4B9842D5D00B4B9842D2D00A4B984225
:1045C000D6D029E7329A336812689B1A3360CFE756
:1045D000AC2F0020007108006C1B0020105D175EDE
:1045E000FFDF00F011E000F0FEDF00F0006D0800DA
:1045F000F00A0020801B00202DE9F04F87B0824692
:10460000894698461646DDF840B02AB1002B4FD0B7
:1046100040F26C739A424ED8BBF1010F4ED8002481
:1046200006F110073946012005941CF069FB054688
:10463000002846D021463A4625F044FB05ABCDE99B
:10464000014300942B46012250464946FFF7BCFE29
:10465000044680B110F18C0F08BF6FF08D043A460C
:104660000021284625F02EFB28461CF059FB204649
:1046700007B0BDE8F08F144BC5E902A92B60C5F85F
:1046800004B02EB13246414605F1100025F025FB5D
:10469000059E0E483B462A463146006812F072FFDE
:1046A00018B93046FFF750FED9E76FF09104D6E70E
:1046B0006FF08604DBE76FF09104D8E76FF08504B4
:1046C000D5E76FF08C04D2E7105D175EF00A00208A
:1046D0002DE9F0438DB08146DDE914780E4615468C
:1046E0001C469BB1B8F1000F05D16FF0860630462D
:1046F0000DB0BDE8F083002FF7D0B7F1005FF4D321
:10470000C3F1005303F580339F42EED810220021FD
:1047100008A825F0D7FA002207AB029305AB019356
:1047200006AB31460093484608ABCDE90522FFF7BA
:104730004BFE06460028DAD1059BA4B1AB4215D842
:1047400053EA0504D1D1069B0B48C8F800400094F9
:104750003A46079900682B4412F0ACFF002818BFB6
:104760006FF09106C3E7AB42EDD2BEE75B1B9C4204
:1047700028BF1C46E7E700BFF00A002030B58DB027
:104780000C4605461022002108A825F09BFA0022BD
:1047900007AB029305AB019306AB21460093284675
:1047A00008ABCDE90522FFF70FFE0446D8B9099BF7
:1047B000012B1BD0079D104B2946186813F012F8E7
:1047C000B8B90122A5F506230C49A3F550635B098E
:1047D00005F01F00824051F823004240284641F86E
:1047E0002320FFF7CDFD20460DB030BD6FF08404CF
:1047F000F9E76FF09104F6E7F00A0020801B002033
:104800002DE9F0438BB01746DDE91545DDE91326A8
:104810009C46DDE91738894621B96FF086000BB058
:10482000BDE8F083002FF8D00EB9002CF5D1129915
:1048300009B9002AF1D10DB9002BEED1B8F1000F62
:10484000EBD0244A944541D10288B2F5105F3DD1A6
:104850004288B7EBD20FE0D322F04001802902D08A
:10486000B2F5807FD9D16CB3AE421CD232199542D9
:1048700019D29C42D1D831462246284625F008FA62
:104880002E4614F00F03C8D1CDE90197CDE90336C8
:10489000CDE90543CDE907540993FFF7E7FC38B1AB
:1048A0006FF09200BBE79C42EBD96FF08900B6E74E
:1048B00007AA04A901A800F037FF0546FFF7E2FCAC
:1048C0000543EDD10020C8F80040A8E76FF085004F
:1048D000A5E700BF004440042DE9F04FA9B083468E
:1048E00017469A460E46DDF8C890DDF8D88029B9FB
:1048F0006FF08603184629B0BDE8F08F002AF7D084
:10490000B9F1000FF4D0349B002BF1D0B8F1000FB7
:10491000EED00024424B0CAD93E8070085E8070079
:104920003C22214619A8189425F0CCF933887288C6
:1049300003F4E040B0F5804FDAD03A4E3A480BEA43
:10494000060646F01066864263D1B2F5807F60D1DC
:1049500047F2121293425CD10620344ABAF11F0F7B
:10496000D3680E940B931369126800FB03F3CDE92F
:104970000C23BDD9339B402BBAD9359B1F2B4BD968
:1049800009F1010220261292402299F800300F9777
:10499000042B18AFCDE91324CDE9157210961194AC
:1049A0001794A5D1FFF762FC03460028A2D10B9B08
:1049B00015AACDE9086305AB07CA83E8070002AB77
:1049C00012AA07CA83E80700DDE910018DE8030099
:1049D0000F9B95E8070000F081FF0546FFF752FCAA
:1049E00055EA000384D13D46349A20AE2C4603CCD0
:1049F000B44210605160254602F10802F6D100224F
:104A00001146B9540132402AFBD12022C8F80020B7
:104A100070E76FF085036DE76FF089036AE700BF09
:104A200030AD03080000FFF60000020944AD0308A2
:104A3000F0B50F461D468DB0002858D0002956D03D
:104A4000002A54D0002B52D0048804F44F43B3F50D
:104A5000824F03D06FF085000DB0F0BDE3B224F0BB
:104A6000FF04B4F5E24FB0F802C0F3D1122B01D02D
:104A7000172BEFD10CF10701B2EBD10F4FEAD106A2
:104A800038D31F4A06ACBCF5807F07CA84E807000C
:104A9000E0D1122B07D11B4B1A691B681344CDE9D7
:104AA0000632002308930023CDE909760B93FFF724
:104AB00003FC0028D0D1FFF7D9FB0028CCD1124B42
:104AC0001149059302AB049083E803000CAB13E992
:104AD00003008DE80300099B94E807001CF024FE06
:104AE0000446FFF7CFFB204307D12E60B4E76FF0F9
:104AF0008600B1E76FF08900AEE76FF09200ABE798
:104B000030AD030844AD0308971A03082DE9F043BC
:104B10008FB01D46DDE916C600285CD000295AD0AA
:104B2000002A58D0002B56D0BCF1000F53D0002ED5
:104B300051D0038803F44F44B4F5824F51D1DCB215
:104B400023F0FF03B3F5824F40884AD0122C01D0E6
:104B5000172C46D1C31DB2EBD30F4FEAD3083AD37B
:104B60004FEA4802571C674538D8B0F5807F38D1E6
:104B7000122C18BF4FF000094FF0000308BF1C4C67
:104B8000CDE9081805F1010114BF4C46D4F80C908A
:104B9000CDE90B120A930D93FFF768FBC0B9CDE97D
:104BA000058902AB08AA07CA83E807000EAB13E920
:104BB00003008DE803000B9B94E807001CF0D3FD75
:104BC0000446FFF75FFB20430ED104232B703760B0
:104BD0000FB0BDE8F0836FF08600F9E76FF0890051
:104BE000F6E76FF08500F3E76FF09200F0E700BFA3
:104BF00044AD03082DE9F04389B00E4615461F4623
:104C0000DDF8488020B96FF0860009B0BDE8F08378
:104C10000029F8D0002AF6D0B8F1000FF3D00388AD
:104C200003F44F42B2F5824F02D06FF08500ECE7FB
:104C3000DAB2122A01D0172AF7D123F0FF03B3F515
:104C4000E24F41D14488C8F8004044B9EB00B3F5C5
:104C5000807FC8F80030E8D1122A0DD108E0E31DAA
:104C6000B5EBD30FCFD1B4F5807FDED1122A29D195
:104C7000354B1C681B691C440023194670192C44D1
:104C800014F801CD10F8012D1143B2EB0C020CBF4A
:104C90004FF0FF3C4FF0000C86420CEA030343EA5E
:104CA0000203EDD10029AED0002BACDA109B9D425F
:104CB00046D82A463146384625F00FF8119B002089
:104CC0001D60A2E70024D7E73378042B9BD16B1E2D
:104CD000DB005B08B3F5807FC8F80030A5D1122A4D
:104CE00006F1010318BF4FF000094FF04002059391
:104CF0004FF000030ABF144C4C46D4F80C90CDE999
:104D00000623FFF7B3FA00287FF47FAFCDF80C90AD
:104D1000D8F800300733DB08029308AB13E903002F
:104D20008DE80300059B94E807001CF0DAFD0446BB
:104D3000FFF7A8FA00287FF468AF002CB6D062E72E
:104D40006FF0890061E700BF44AD03080388B3F545
:104D5000105F0ED14388DB08103B102B0CD8084A9B
:104D600022FA03F313F0010F14BF00206FF0860046
:104D700070476FF0850070476FF08600704700BF86
:104D8000010101002DE9F04F8FB01546DDE918A9AA
:104D90001E46DDF868801C9F09B300B3B8F1000F10
:104DA0001DD0E7B1BAF1000F02D1B9F1000F16D151
:104DB000274B26F47E129A42B0F802B044D1FFF796
:104DC000C5FF0446A8BBB5EBDB0F4FEADB0306D3F8
:104DD00016F47C1FC6F3054504D0102D03D96FF0DF
:104DE000860426E010251B9A95422AD8CDE90113A6
:104DF00000231022CDE905930DF12809CDE9033AEE
:104E0000CDE90823CDF81C90FFF730FA044680B9AD
:104E100007AA04A901A800F09BFC0646FFF732FA96
:104E2000044656B958B92A464946404624F055FF2B
:104E30003D6020460FB0BDE8F08F6FF09204002572
:104E4000F6E76FF08904F4E76FF08504F1E700BF3F
:104E50000002C0032DE9F041069F0C4616460546A8
:104E600010B309B302B9FBB96288B3EBD20F4FEAB2
:104E7000D20819D34C220021284624F023FF0D4BE1
:104E800027F47E129A4212D12046FFF75FFF0446B4
:104E900038B942463146281D24F01FFFC5F824804A
:104EA0002F602046BDE8F0816FF08604F9E76FF0CF
:104EB0008504F6E70002C0032DE9F0410E461446D2
:104EC0000546002840D000293ED092B10368214811
:104ED00023F47E1383423AD1AF6BF7B1C7F11008C8
:104EE00007F128004245284406D2274424F0F5FE65
:104EF000AF630020BDE8F081424624F0EEFE1022B0
:104F0000103C3C19AA63F4D0284605F128011CF096
:104F1000B7F80028EED14644A863102C0CD9671EC0
:104F200027F00F073A46314628461CF0A9F800281A
:104F3000E0D1E41BDDD03E442246314605F1280095
:104F400024F0CBFEAC63D4E76FF08600D2E76FF0BD
:104F50008800CFE70002C0032DE9F04388461F46D2
:104F600005468BB070B169B163B10368234923F47E
:104F70007E1088423ED113F47C1FC3F3054604D053
:104F8000102E03D96FF086042AE0102696422BD803
:104F9000FFF76CF9044618BBAB6B05F12802CDE9AD
:104FA00001236B6A2A1DCDE904231023CDE90830C3
:104FB00007AB1A460390069005F13C0901A904A825
:104FC000CDF81C9000F0E8FB0546FFF75BF90446BE
:104FD0006DB928B932464946404624F07EFE3E600F
:104FE00020460BB0BDE8F0836FF08904F8E76FF05E
:104FF0009204F5E76FF08504F2E700BF0002C003FA
:1050000030B5154B87B00293144B0390049346F6CA
:1050100011030D46059300F077F91428044616D1C4
:1050200068461CF034F94FF0A843032202A95A63E2
:1050300019601D619A63DA6B9207FCD1142C02D1BE
:1050400068461CF032F900F093F9044601E00028AC
:10505000E9D0204607B030BD941B0020040000209A
:105060002DE9F04FB1B005468C469E46E8466F4E9E
:10507000DDF8EC90409C06F1100A474630687168F4
:10508000083603C75645B846F7D13E9B03EB0208E6
:10509000C8F1000A0AF00F0AB9F1000F00F09D8074
:1050A000C9F1000707F00F070121DDF8FCB044F05B
:1050B0000050C4F11006CDF810B0059106903002F2
:1050C00000F4F85040F021000790B9F1000F40F0D3
:1050D0008680CDF820D047F00050002D00F084806D
:1050E000099121210A9041EA07210B9142F00050D9
:1050F000CDF830C03D9B08A94FEA0A2C0D910E90C7
:105100004CF041000F901093002A75D13E9B1191F5
:1051100043F0005312933C9B1390149310AB1593E0
:10512000434B444A169340F611031793424B002118
:10513000002D08BF1346189314AB19933F4B102250
:105140001A9311231B931CAB184624F0BBFD0122BC
:105150001D92002246F0804603461E96239205B912
:10516000EB46102CCDF880B024AE4BD10123224663
:10517000002130462193229424F0A4FD20AB00218D
:1051800025938F4218BF334647F0804226923A9AC1
:105190002CA828922993B2FA82F35B0949EA837317
:1051A00010222B912A9324F08DFDB9F1000F00D02D
:1051B00028AED04448F080432CA918A82D962E93F1
:1051C000FFF71EFF30B92DB90346A34225D10028B1
:1051D00018BF2C2031B0BDE8F08F102764E7CDF860
:1051E00020E049F0005078E7002C3FF479AF04A9A3
:1051F000099101210A9076E73E9B0CAA1192412069
:10520000129388E71022002130462193229424F043
:1052100059FD002CB2D10123B1E703F1C0026A4469
:1052200012F8C02C01331043CFE700BF00AD0308D4
:105230001000002018AD03081CAD03080400002076
:10524000F0B5C0299FB0DDE9244557D0B1F5807F86
:1052500004D0802948D029201FB0F0BD01265CB1C0
:1052600040F23447029410240396049421240197B9
:105270000594069502AC0AE040F21447029410240B
:10528000039604942124059401240197069507941C
:1052900001251024089409950A9221220B950C945B
:1052A0000D92174A0AAD0E92164A0F95109242F6C9
:1052B00011021192129313951494159201AA169249
:1052C000D3B112AB1793042318931123199316AB80
:1052D0001A901B9340F61103C9081C911AA806A93D
:1052E0001D93FFF78DFEB7E7012614B94FF48267CF
:1052F000C4E74FF48667B5E70EABE3E70F20ABE7F3
:1053000014AD03081000001038B5164B5A6E42F069
:1053100004025A66D3F8802242F00102C3F88022C8
:10532000114B5B68C3F3080343B14FF0A842D36B42
:1053300013F0430FFBD11424204638BD4FF0A8438F
:10534000DC6B14F04304FBD1084D2B681BB904211E
:105350002846FDF73DFB2B68013343F000432B60EB
:10536000EAE700BF0080005000ED00E0941B002041
:10537000014B00205B68704700ED00E006289ABFF3
:10538000014B185C0020704720AD030882B06B46CB
:1053900083E80300034A93E8030082E8030002B0B5
:1053A000704700BF981B00201B0603F0706300F0DD
:1053B0000F000902034301F47061120402F4702229
:1053C0000B431343014A1360704700BF0020025C87
:1053D0002DE9F04717460D4688B0002946D04C1EEF
:1053E000B4F5806F52D22A4AD66816F48036FBD1C3
:1053F00040EA04243907222844F0004401F0805197
:1054000008D02D38062833D84FF0490C2CFA00F07C
:10541000C00734D51C430C4344F0407454601D4A0B
:1054200003AB10685168022203C30023CDE90623B1
:10543000DFF864A00DF10C090DF11408CDF81490FB
:1054400098E80E00DAE90004A047022148461CF063
:10545000D7F90028F2D00F22EB1C009223F00303AF
:1054600098E807007FB11BF03DFF04E00C46BAE767
:10547000194321435160304608B0BDE8F0870B4323
:1054800023435360F7E71BF0C6FFF4E70126F2E77A
:105490000020025C27AD0308981B00200122054B69
:1054A0009A60DA68D203FCD4D86820F00F000004B8
:1054B000000C70470020025C014B1868704700BF69
:1054C0000040025C014B5868704700BF0010025C4E
:1054D000014B186B704700BF0010025C014B18684D
:1054E000704700BF0010025C014B9860704700BF1E
:1054F0000010025C014B1864704700BF0010025C92
:10550000014B5864704700BF0010025C014B5863A8
:10551000704700BF0010025C0022014B1A60704708
:105520000010025C024A136843F0010313607047E5
:105530000010025C43F20402014B1A60704700BF86
:105540000010025C024A136843F030031360704796
:105550000010025C044B1A6842F480721A601A68E8
:1055600022F480721A6070470010025C024A1368CD
:1055700043F48063136070470010025C034A1368B1
:1055800023F4702343EA0043136070470010025C69
:10559000044B1A6902605A6942609A698260DB6949
:1055A000C36070470010025C0268044B1A614268D5
:1055B0005A6182689A61C268DA6170470010025CC1
:1055C000024B1A6BD207FCD4186270470010025CC1
:1055D000024B186B00F00E00704700BF0010025C19
:1055E0000322024B186019615A6370470000025C85
:1055F00082B01FB507930A9B04AC8B4228BF0B46B1
:1056000004E907001048D100079948BF033301603F
:10561000099948BF23F0030323F0704301F0E041F0
:10562000194341F000518160002102F0E042019CE9
:105630001A4342F00052C16004618261416304B0C8
:10564000BDE8104002B070470000025C3F22034BEF
:105650001A631022DA6103229A6370470000025C29
:10566000024AD36B9B07FCD4704700BF0000025C6A
:10567000044B9B6A13F0240F14BF0120002080000C
:10568000704700BF0000025C08B5FFF7F1FF064B52
:10569000DB6B23F47F4323F0EF0303431EBF0122A0
:1056A000024BC3F8FC2F08BD0000025C00F0FF3F76
:1056B0004368182B0AD0202B1DD0102B2BD1174B51
:1056C000D3F80434DB010AD401207047134BD3F81C
:1056D00004349A01F8D50B6843F008030B600368A3
:1056E0000F4A934210D10B6843F040030B60002334
:1056F000436000207047094BD3F804345B01E3D5C5
:105700000B6843F00403E9E7064A9342F1D10B68C2
:1057100043F08003EAE70720704700BF0000025C07
:10572000AE2F0020AD2F00200B4607B50749D1F85A
:105730000414C90708D5002100920246084600F06B
:105740005BF803B05DF804FB0120FAE70000025C9F
:105750001346064AD2F80424D20504D50A46014667
:1057600000201BF0D7BF0120704700BF0000025C83
:1057700013B5084CD4F80444E40508D50093134647
:105780000A460146002000F061F802B010BD012079
:10579000FBE700BF0000025C13B5084CD4F80444DA
:1057A000E40508D5009313460A460146002000F0A0
:1057B00071F802B010BD0120FBE700BF0000025CE1
:1057C00070B504460D4616468CB00A4A09AB07CAA6
:1057D00083E807001A462146CDE90563CDE9033386
:1057E000CDE9013300954FF480301BF0BFFE0CB0C3
:1057F00070BD00BF30AD0308F0B51C465B681546B0
:105800008DB01A07129E1AD1CBB17268934216D18D
:105810000C4B0D4A53F8217009AB07CA83E8070007
:105820001A462946CDE90533CDE90333CDE90163B5
:10583000009447F480701BF099FE0DB0F0BD072076
:10584000FBE700BF3CAD030830AD0308F0B51646DA
:105850005A688DB0102A0D46129F15D17A68102A09
:1058600012D10A4A09AC07CA84E807002246294631
:10587000CDE90547CDE90344CDE90144044800964C
:105880001BF074FE0DB0F0BD0720FBE730AD030840
:1058900030000100F0B516465A688DB0102A0D464A
:1058A000129F15D17A68102A12D10A4A09AC07CA88
:1058B00084E8070022462946CDE90574CDE9034472
:1058C000CDE90144044800961BF050FE0DB0F0BD38
:1058D0000720FBE730AD03081000010082B070B56F
:1058E00086B0149D03AE202D86E807000B9359D88F
:1058F00005EB85038B4203D006236B438B4253D1C8
:105900000C9BAB4250D10F9BB3EB450F4CD1129A7D
:10591000934249D1012229462220159BFFF758FDC9
:10592000044630BB034606220E210C20FFF73CFD47
:105930000123CDE900332B4696E807001BF087FDD5
:105940000E230BAA009307CA2B461BF0CBFC0C239B
:10595000164C00930EAA2B4607CA1BF0F3FC636893
:1059600023F07F0343F026036360FFF797FD30B118
:105970000624204606B0BDE8704002B07047636858
:1059800023F07F0343F022036360FFF787FD0446A3
:105990000028EDD1062311AA009307CA2B461BF05D
:1059A00004FDE6E70124E4E70724E2E70020025CC7
:1059B00070B598B0002843D02C4C08AD0FCC0FC563
:1059C0000FCC0FC50FCC0FC594E80F0085E80F0072
:1059D0006D4604AE04F1100320340FCB85E80F00B0
:1059E00094E80F0086E80F00FFF7B4FD0420FFF7EE
:1059F000C5FDFFF79FFD3046FFF7D6FD002408AE3A
:105A000056F8040B0134FFF7DBFD102CF8D1FFF73B
:105A100059FD0328FBD90024FFF77EFD2646FFF73A
:105A20004BFD55F8043B01365840042E44EA00046F
:105A3000F5D12CB1012206200D4B1A7018B070BDA3
:105A4000FFF788FD0820FFF74FFD0020FFF752FD0C
:105A50000720FFF755FD4FF40070FFF757FD0820B2
:105A6000FFF78CFDFFF75EFD0020E7E724AE03089B
:105A7000B02F002008B5FFF76DFD0122014B1A7011
:105A800008BD00BFAF2F002030B589B005AC84E859
:105A90000700FFF71DFDC30501D5FFF7EBFF0A4D1A
:105AA0002B781BB11BF0C6FF00232B70074B069A07
:105AB000D3E901018DE8030002921B6894E8070016
:105AC0001BF0BEFE09B030BDAF2F002018AE03089A
:105AD0001FB51BF0AFFF044630B1012206240D4B69
:105AE0001A70204604B010BDFFF7E6FC0090FFF7E7
:105AF000E3FC0190FFF7E0FC0290FFF7DDFC039070
:105B00006846FFF751FDFFF7B5FFFFF71BFDFFF7F5
:105B10002DFDE6E7B02F00207FB51422002101A85B
:105B200024F0D0F8044B01A94FF0FF30029323F08A
:105B300049FC07B05DF804FB006A180038B504465C
:105B4000054D23F006FC0FCC0FC594E8030085E853
:105B50000300002038BD00BFA01B002047F6FF73E4
:105B60009A42F0B56FD002296FD8394B5B5C012B9C
:105B70006BD8384DDF0005EBC30415F83330A1783E
:105B8000012B13D10025E078401AA84202D808441E
:105B9000C0B2F0BD431B6668A0EB530336F9136037
:105BA0009642D4BF1D4603F1FF30EEE7606800283F
:105BB000EFD0B0F90040944204DBB0F902409442C7
:105BC000B8BF144683883D44FF2B19BFC8224FF04D
:105BD000280CB0F90620B0F908C0A2EB04030CBFF2
:105BE0000126002693FBFCF333446E781BB29E42E1
:105BF00001DD002B01DA731E1BB24FF47A7C0133F6
:105C00009BB2071D5D1E2DB24FEAC50E00EBC50508
:105C1000EA88AD689E4214FB025222EAE27202F167
:105C20005C02B2FBFCF204DD37F8335001339542DD
:105C3000E8D200EB0E039888904228BF10468842B5
:105C400038BF0846A4E7FF20A3E70020A1E700BF74
:105C500084AE0308A01B00200229F0B555D82C4BB8
:105C6000585C012851D82B4C04EBC00114F83000CB
:105C70004B6801280FD1C8788C78904294BFC4EB50
:105C80000001C4EB0201001BCAB28242C8BF00225D
:105C900033F91200F0BD002B37D08878904202D340
:105CA000B3F90200F6E7CC78B3F900009442F1D9D9
:105CB0004C789988013CA1F1FF06714203F104057B
:105CC000E4B2714103F10C07CEB2B44216D805EB31
:105CD000C1014FF47A756A43B1F902404968521A1A
:105CE00004EBD47102EB610292FBF4F29042D1DB3F
:105CF000B3F902009042CDDC10B2CBE737F831C0E7
:105D00004E1C9445E3D33146DEE70348C2E700BFAB
:105D100084AE0308A01B00200080FFFF08B50448E4
:105D2000FFF70CFFBDE80840012023F016BB00BFC1
:105D300088AE0308004870475C0C0020044BD3F881
:105D40008420D206FBD4D3F88400C0F381107047BE
:105D50000040005038B5104B0546D3F820310C46B2
:105D600003F00303022B0BD0032B0DD0012B0FD11B
:105D700001F0CCF9052305B1286004B1236038BDDA
:105D800001F0FAF90323F6E701F00CFA0223F2E737
:105D900001230020EFE700BF0080005073B50D46DF
:105DA00000210E4B0191D3F88041064604F0030414
:105DB000012C09D0022C0CD00C460EB1019B336093
:105DC00005B12C6002B070BD01A8FFF7C3FF0F241E
:105DD000F3E701F0E7F90190EFE700BF0080005022
:105DE00038B5184B0546D3F824010C4600F00700DF
:105DF000062823D8DFE800F0040A121A1E0E160047
:105E0000012305B1286004B1236038BD01F07EF99B
:105E10000523F6E701F07AF90623F2E701F0ACF981
:105E20000323EEE701F0A8F90423EAE701F0BAF949
:105E30000223E6E71BF0DBFE0723E2E70023184618
:105E4000DFE700BF0080005038B5104B0546D3F89F
:105E500040310C4603F00303022B0BD0032B0DD073
:105E6000012B0FD11BF0C5FE092305B1286004B139
:105E7000236038BD01F09AF90823F6E71BF0BCFE59
:105E80000B23F2E701230020EFE700BF0080005062
:105E900037B50C460021124B0191D3F884320546E8
:105EA00003F00303022B0ED0032B11D0012B14D1CE
:105EB00001A8FFF74FFF0F230DB1019A2A6004B12B
:105EC000236003B030BD01A8FFF7BEFF1023F3E746
:105ED00001F068F902230190EEE70123ECE700BF2F
:105EE0000080005038B5144B0546D3F800020C462C
:105EF00000F0070004281BD8DFE800F003090D11AB
:105F00001500012305B1286004B1236038BD1BF0E2
:105F100070FE0923F6E701F049F90823F2E71BF0C8
:105F20006BFE0B23EEE701F011F90E23800AE9E77F
:105F300000231846E6E700BF0080005038B5104B3C
:105F40000546D3F840320C4603F00303022B0BD076
:105F5000032B0DD0012B0FD11BF04BFE092305B1F4
:105F6000286004B1236038BD01F020F90823F6E76A
:105F70001BF042FE0B23F2E700231846EFE700BFB9
:105F80000080005038B5104B0546D3F860310C4600
:105F900003F00303022B0BD0032B0DD0012B0FD1E9
:105FA0001BF027FE092305B1286004B1236038BD2A
:105FB00001F0FCF80823F6E71BF01EFE0B23F2E7C6
:105FC00001230020EFE700BF0080005038B50C46E9
:105FD00005461BF094FD054B9A6A54402C405440F2
:105FE0009C62BDE838401BF08EBD00BF00C0005071
:105FF000B0F5207F1FD009D8B0F5007F15D003D8A9
:1060000068B1B0F5C07F0AD000200CE0B0F5607F29
:10601000FAD10B4BD3F88000C0F3011003E0084B1A
:10602000186FC0F3033001307047054BD3F8900070
:10603000C0F30460F7E7024B186FC0F38020F2E76B
:10604000008000504FF400320E4B014610B5002086
:106050009A66FFF7CDFF484341F671320A490B4B70
:10606000884294BF00200120DC69DA635A6822F478
:10607000401242EA00525A60E20344BF0022DA634F
:1060800010BD00BF00900050005A62020000035093
:10609000420910B50FD0012A0FD00A4B0A4C022A30
:1060A00018BF234600F01F0049B103F580530122B9
:1060B00082401A6010BD1346F4E7044BF2E703F583
:1060C0000053F4E768800050608200506480005004
:1060D0001FB5002280280446019200F00C8100F2D6
:1060E000BF803F2836D9A0F14D04142C02D9019865
:1060F00004B010BD142CFAD801A353F824F000BF4B
:106100007F620108EF6001087F6201087F62010879
:106110007F620108456301089D6201084F63010821
:10612000EF600108EF600108EF600108EF6001080F
:10613000EF600108EF600108EF6001089963010852
:10614000EF600108EF600108EF6001087F6201085D
:106150007F6201083F28CAD801A353F820F000BF8E
:106160007F620108EF600108EF600108EF6001083D
:10617000EF600108EF600108EF600108EF600108BF
:10618000EF600108EF600108EF600108EF600108AF
:10619000EF600108EF600108EF600108EF6001089F
:1061A000EF600108EF600108EF600108EF6001088F
:1061B000EF600108EF600108EF600108EF6001087F
:1061C000EF600108EF600108EF600108EF6001086F
:1061D000EF600108EF600108EF600108EF6001085F
:1061E0007F620108136301087F62010813630108DD
:1061F00045630108456301084563010845630108DB
:106200001363010813630108596301089D620108C3
:1062100085630108ED6201089D62010813630108AE
:106220001363010813630108EF600108EF600108C0
:10623000EF600108EF600108EF600108EF600108FE
:10624000EF600108CF6201081363010813630108BE
:1062500013630108996301088F6301081363010840
:10626000B0F5806F6ED024D8B0F5007F47D009D844
:10627000B0F5807F75D0B0F5C07F7FF438AF00F007
:1062800065FF3AE0B0F5607F49D03FF630AFB0F53A
:10629000207F3ED0B0F5407F7FF429AF00F056FF5D
:1062A00002464FF42070FFF7A3FEB2FBF0F2520853
:1062B0002DE0B0F5C06F65D00ED8B0F5A06F46D018
:1062C000B0F5B06F48D0B0F5906F7FF410AF0021FB
:1062D00001A8FFF785FD0AE7B0F5E06F57D0B0F5EC
:1062E000F06F59D0B0F5D06F7FF401AF002101A855
:1062F000FFF7F8FDFBE600F00FFF0190F7E600F076
:106300000BFF02462046FFF773FEB2FBF0F201924C
:10631000EDE600F01BFF02464FF42070F3E7214B3F
:10632000D3F8803003F00303012B04D0022B06D0F6
:106330004FF46070E7E700F0EFFE0246F8E700F088
:10634000E5FEFAE7002101A8FFF704FDCFE60021F2
:1063500001A8FFF79DFDCAE6002101A8FFF71EFD79
:10636000C5E64FF0E02302921B695B0705D500F0FC
:10637000EDFE0290029B0193B9E603A902A8FFF784
:1063800063FDF7E7002101A8FFF75EFDAFE60021FE
:1063900001A8FFF7D3FDAAE6002101A8FFF7F2FD4F
:1063A000A5E600BF0080005008B58020FFF790FEF2
:1063B000034B98429EBF4FF48032024B1A6708BDD0
:1063C000005A620200A000501FB50023B0F5607FA4
:1063D000019300F0A88036D8522800F08B8016D8A0
:1063E0002D280BD823280ED9243809280BD8DFE80C
:1063F00000F0818181810A0A7C0A438B3D280ED0FE
:106400003E2800F0A680019805B05DF804FB8028C6
:1064100053D009D8542800F097805C28F3D100208D
:1064200001A9FFF7AFFDEEE7B0F5807FEBD1029356
:106430004FF0E0231B695B0761D500F087FE0C235A
:106440000393039B4DE0B0F5D06F5DD019D8B0F544
:10645000A06F79D00AD8B0F5806F4BD0B0F5906FAF
:10646000D1D1002001A9FFF7BBFCCCE7B0F5B06F9C
:106470003BD0B0F5C06FC6D1002001A9FFF7E4FC06
:10648000C1E7B0F5006FECD005D8B0F5E06F60D093
:10649000B0F5F06FC2E7B0F5086FB4D12F4BD3F869
:1064A000003103F00303022B33D0032B35D0012B33
:1064B00037D100F061FE032313E0284B1B6F03F07C
:1064C0000703013B032B9ED801A252F823F000BF23
:1064D000E7640108E1640108B76401081F65010869
:1064E000052301938FE70223FBE7002001A9FFF7B3
:1064F00055FC88E7002001A9FFF72CFC83E703A9DE
:1065000002A8FFF7A1FC9CE7002001A9FFF7EAFC25
:1065100079E700F04BFE0823E3E71BF068FB072355
:10652000DFE70123DDE70D4AD2F8802002F0030205
:10653000012A05D0022AD4D100F0E8FD0623D0E7D5
:1065400000F0EAFD0D23CCE7002001A9FFF7A0FC35
:1065500059E7002001A9FFF7F1FC54E70080005043
:106560004FF40022034B5A66012203F580439A62DE
:10657000704700BF0090005008B5FFF725FF0828BE
:1065800011D00938012802D94FF6FF7008BD4FF429
:106590000012064B5A6603F5D8335B6ADB07F3D566
:1065A0004FF4FA70F2E7024B1888EFE700900050C2
:1065B000640C0020F8B504468020FFF705FF03288F
:1065C00000F087804FF40022424B02215A6645F6C4
:1065D0000E03414AC2F88030404B9962012103F515
:1065E00080539962936DD903FCD4D4E900131B0541
:1065F00043EA0163E17B94F820500B43217BE77E63
:1066000043EA0143617B6D0143EA0133A17B43EA25
:10661000811313619169D4E904031B0643EA806383
:1066200001F000410B43A17E94F823000B43217E2F
:1066300043EA0143617E43EA01239361136AE669F9
:1066400023F00D0394F8221043EA8703002E2DD186
:106650001362966A94F8213045EA031326F0330555
:106660002B4343F0010393621D4D1B4B9A6D35EA9A
:106670000202FBD10222194DAA621A659A6D5200DC
:10668000FCD41A69A56822F4700242EA05521A6124
:106690004FF00042114B9A6119B9022203F5805361
:1066A0009A6278B901220F4B9A620BE0334343F0B0
:1066B00008031362936A23F0330303432B4343EA33
:1066C0004103936294F824301BB1034B064AC3F88C
:1066D0008020F8BD0090005000C0005000D0005055
:1066E0000300014000E00050F1A7FFFF1E4BFF2810
:1066F00070B59E6A35D89A6D12F4803F18BF01219B
:106700001A4A18BF9162022191629B6DDC0303D586
:10671000154A936D9907FCD50222144B124D1A6548
:10672000AC6D14F08044FBD1114AAB6992F90020A2
:1067300023F47F03024423F47F4382F3080243EAF5
:10674000002343EA0243AB6131460220FFF73EFCDF
:10675000AB6DDB0303D531460120FFF737FC204644
:1067600070BD2124FBE700BF00C0005000D00050E6
:10677000B12F0020014B93F900007047B12F00208A
:1067800001221548154B816A9A62826D02F003025C
:10679000032AFAD102229A621A650F4A936D5B00AE
:1067A000FCD40F48936D30EA0303FBD101220B4B5D
:1067B0001A65A3F580539A6D9007FCD49A6D9207E1
:1067C000FCD50222054B1A65034A936D9B07FCD545
:1067D0000320FFF7FBBB00BF00C0005000D00050FB
:1067E00003000100F0B5D0E901434FF480061A4AD6
:1067F0004178057856664FF4D156022702F5B83233
:106800005662164E4F2977604FF0010728BF4F217F
:1068100006F5805677601669F603FCD441EA052137
:1068200051611B01417B43EA04230B43017B43EA93
:1068300041039360C37B817B1B0143EA4113417C8D
:106840000B43017C43EA41035360837C13B16FF433
:10685000D1535362F0BD00BF0090005000100250B1
:10686000014B1880704700BF640C0020014B18805A
:10687000704700BF620C0020B0F5207F10B50C46B9
:106880005DD008D8B0F5007F4ED003D8C0B1B0F5C8
:10689000C07F15D010BDB0F5607FFBD12C4B4C1ED6
:1068A000D3F8FC202B4912F0807F4FEA041427D143
:1068B000D1F8803023F030032343C1F88030E9E77A
:1068C0001BF0F5F81BF001F94FF48031224B214AFF
:1068D0001967136F013C23F4704343EA04331367D1
:1068E00000F034FC0446FFF729FAC0F1020120460B
:1068F0001BF0E5F800F042F8BDE81040FFF754BD8A
:10690000D3F8FC2022F08072C3F8FC20D1F880205C
:1069100022F030022243C1F88020D3F8FC2042F05C
:106920008072C3F8FC20B5E70A4A4C1ED2F89030BA
:1069300023F0F85343EA0463C2F89030AAE7054A0B
:106940004C1E136F23F4806343EA84231367A1E78B
:1069500000ED00E0008000500090005008B50121DB
:10696000022000F0D3F81BF0A2F81BF0AEF84FF4B1
:106970008032014B1A6708BD0090005008B54FF4F3
:10698000C070FFF7A5FBBDE808400449884294BFEA
:10699000012102214FF42070FFF76EBF80F0FA0250
:1069A000034B5868C0F30800003818BF0120704737
:1069B00000ED00E010B5224B70B94FF40031214AD0
:1069C0001860516602F598325268012A03D11E4AB6
:1069D000D2F800211A6010BD1B68002BFBD01B4AA7
:1069E0005268012AF7D0184A8020C2F80031FFF718
:1069F000EBFC05281FD14FF4C070FFF7F9FA01280E
:106A0000044604D102214FF4C070FFF735FF07227E
:106A10000F4B1A610122A3F580535A600B4A136988
:106A2000DB07FCD5012CD6D12146BDE810404FF440
:106A3000C070FFF721BF0122064B5A60CBE700BFB1
:106A4000B81B0020009000500080005000C0015092
:106A500000E0015000D00150044A4178536F23F404
:106A6000407343EA01235367704700BF0040005062
:106A700010B5044610B10020FFF79CFF0B4A1369C4
:106A800043F004031361FDF735F91BF048F830BFFC
:106A90001BF046F8FDF750F91CB9BDE8104000F0B6
:106AA00055BB0120BDE81040FFF784BF00ED00E0BA
:106AB00010B5104C60B9236943F004032361FDF75E
:106AC00019F930BFFDF738F9BDE8104000F03EBBC2
:106AD0000020FFF76FFF236943F004032361FDF7F4
:106AE00009F930BFFDF728F9BDE810400120FFF794
:106AF00061BF00BF00ED00E0034A0179D36E23F0CF
:106B000030030B43D366704700400050F8B504468D
:106B10001C4BD3F88420D106FBD4D3F88430C3F3C4
:106B200081139C422CD000F0F7FA012C064602D1CA
:106B300021461AF0C4FF1AF0E2FF4FF00072124B28
:106B400007465A6620461AF0F2FF4FF480630D4D57
:106B5000621E93402B676B6E9A0103D4D5F8843084
:106B60009B060AD538461AF0CEFF022C08D13046D3
:106B7000BDE8F84000211AF0A2BFD5F88430EAE75A
:106B8000F8BD00BF004000500060005010B50C463A
:106B900008B900F0C1FA074B21461B783BB1064B00
:106BA000984204D80120BDE81040FFF7AFBF022093
:106BB000F9E700BFB22F0020005A62020278034BAF
:106BC000012100201A70FFF7E1BF00BFB22F0020A3
:106BD000012318B1034AC2F8BC3070474FF050226D
:106BE000F9E700BF006000504FF0004238B5254B78
:106BF0005A664AF6CD33244AD2F89440C2F890300F
:106C000004F0010440BB136C13F00103FBD1526884
:106C1000D20717D501211D4A51601B491C4AC86B78
:106C2000C5070DD4934209D107251CB1164B194A4B
:106C3000C3F8902022F069FB284638BD0133EEE707
:106C40009342F1D00025F0E70131D36B13F0080334
:106C500005D08142F8D1E7E700210D48F5E78142F0
:106C6000E2D02021094A51630121A2F580525160EE
:106C70000549074A486B8006E2D49342D4D00133D9
:106C8000F8E700BF00900050004009500060095034
:106C900040420F003254FFFF4FF0004238B5164B10
:106CA000164C5A664AF6CD33D4F89450C4F8903056
:106CB00005F00105236CDB07FCD4236A027823F07E
:106CC000700343EA021323628278037943EA0223C2
:106CD000A362C2784379407843EA0223E362FFF774
:106CE00077FF0120FFF780FF15B1054BC4F8903006
:106CF00022F00BFB012038BD0090005000400950ED
:106D00003254FFFF2DE9F04105460F461E469046DE
:106D10004AB101233022194C8B4002FB004436B3A8
:106D200004F5825423600F21072F05EB450388BF2C
:106D3000A7F108044FEA0313114895BFBC00A40053
:106D400004330C3308FA04F2A14018441AF0F0FEA0
:106D5000B8F1000F09D101233021084ABB4001FBE3
:106D600005223EB102F582521360BDE8F08104F5C0
:106D70000154D7E702F50152F6E700BF00C0035007
:106D800030C003504FF40032054B9A6641F6713221
:106D900003F51C33DA63012203F50053DA60704710
:106DA0000090005041F671320121064BDA6303F581
:106DB0000052D1600022DA634FF40032A3F5183399
:106DC0009A66704700000350CB784A7810B55B0193
:106DD0000C7843EA82030A79234343EA02130C2224
:106DE000424302F1B0421363012C02BF8A78024B86
:106DF00043F8202010BD00BFEC80035008B54FF0D1
:106E0000B0435A686AB958B15B680BB11AF09FFE7B
:106E100001210D4B59601AF09AFE4FF0B043D96032
:106E200008BD5B680BB11AF092FE0028F0D11AF091
:106E30008EFE4FF0B0430222DA601AF088FE012283
:106E4000024B5A60ECE700BF0010005800200058C9
:106E50004FF0B0414B6810B50BB11AF078FE01222B
:106E60000B4BC4785A608378934043EA8403447898
:106E70002343047943EA0413447943EAC4038B604F
:106E8000044B5A600378C3F10203CB6010BD00BF0E
:106E900000200058001000584FF48032084B5A660A
:106EA00003F5E6235B69C3F3461203F00F010A43BF
:106EB0004280C3F30342C3F303334270037070474D
:106EC00000900050014B986CD96C70470080E00F27
:106ED0000120034B9B680A3303F01F03984070475F
:106EE0000080E00F024B1968024B186810F070BA6E
:106EF000D00A0020F00A002070B594002246054612
:106F00000E4623F04DFE431C0AD058B922463146A6
:106F1000284622F0ADFE0028034808BF002070BDBF
:106F20000248FCE70248FAE710E000F021E000F038
:106F300024E000F010B5044623F02EFE431C10D0D0
:106F400088B9FFF7C5FF234620F00300204498428C
:106F500001D1002010BD53F8042B0132F7D00348B3
:106F6000F8E70348F6E70348F4E700BF0EE000F057
:106F700021E000F024E000F008B51AF0C0FD014B5C
:106F8000186008BDAC220020014B18681AF0BBBD88
:106F9000AC2200200346054A0549106803448B4291
:106FA0008CBF4FF0FF301360704700BFF40A002021
:106FB000000001204FF000639B6A10B503F1784296
:106FC000B2F5903F11D21968094A91420DD1094C8E
:106FD000227812F0FD0F01D0002010BDDB69984728
:106FE0000028FAD101232370F6E74FF48170F4E70B
:106FF00007B0CD5EB32F00204FF00053074A1A6050
:10700000BFF34F8F0649074BCA6802F4E06213438F
:10701000CB60BFF34F8F00BFFDE700BF02020FF050
:1070200000ED00E00400FA050348044A0449121A7E
:1070300092101AF0D1BD00BF1C0404081C040408FF
:10704000AC30002008B500F02FF8FFF7EDFF124B31
:1070500012498B4212D30020114B12498B4218D394
:10706000FBF756F9186850F82240586840F822405B
:10707000013298688242F5D30C33EAE70022F8E740
:107080001C6844F8220001325C68A242F8D308333D
:10709000E4E70022F8E700BF74F7030880F703086D
:1070A00080F7030880F703084FF400414FF0FF30EA
:1070B000114B124A10B59A60D3F8882042F470023E
:1070C000C3F888200E4A916601F1884101F500520B
:1070D00010660C4850660220C3F8D000BFF34F8FF3
:1070E000BFF36F8F08244FF440330748C0F8804146
:1070F000D36004600B6110BD00ED00E000200108CA
:10710000009000507FFF070000E100E0014B18688D
:10711000704700BFFC0A0020084B1B6F03F00703F9
:10712000022B04D0032B05D0012B05D0FEE7044B26
:1071300018687047034BFBE7034870470080005016
:10714000FC0A0020040B0020002D310108B5FFF7D8
:10715000E3FF054B1B6FC3F303330133B0FBF3F0C5
:10716000024B186008BD00BF00800050F80A0020E4
:107170000048704700B4C404014B1868704700BF52
:10718000040B0020054B1860054B1B6F03F0070331
:10719000032B01D1FFF7DABF704700BF040B0020BB
:1071A0000080005000487047002D3101014B1868E5
:1071B000704700BF000B0020002209490B684BB14B
:1071C000834204D1836A4AB19362012070471A4610
:1071D0009B6AF4E70028F5D0184670470B60F4E787
:1071E000B022002010B5044698B1FBF769FF204695
:1071F000FFF7E2FF10B194F82C300BB9002010BD5E
:107200001AF084FC044A1368013B13601AF084FCF2
:10721000F4E72220F3E700BFB42200202DE9F04379
:1072200085B00546914698460E469DF8307009B9DE
:10723000002F57D12846FFF7D5FF044690BB85F8AD
:107240002C006863FCF72EF886422FD9FBF7CAFFA3
:107250002146844640F2E7304FF47A720023E6FB81
:107260000C0117F0A5F84FF0FF32002317F0A0F83B
:107270002B46E88611462846CDE900441A4A19F003
:10728000E0FD044670B9194AC5E90898136885F805
:107290002D702E6323B31A469B6A002BFBD1956297
:1072A0000023AB62204605B0BDE8F08347B12B4612
:1072B00031462846CDE900440B4AFBF7B7FFE0E72B
:1072C000304603A9FBF794FF04460028EAD12B4679
:1072D0002846CDE90077044A039919F08EFDD0E7DE
:1072E0001560DDE72124DDE7F1720108B0220020FE
:1072F00091F82C3013B50C4683B98B8ECA8E93420D
:107300000ED243B9CDE9003320460B46104A4FF068
:10731000FF3119F056FDA38E0133A38602B010BDD4
:1073200052B191F82D307BB101230093D1E90823AC
:107330002046096BFFF772FF0123064A84F82C30C0
:10734000136801331360E9E70846FBF7B9FEF3E77A
:10735000F1720108B422002070B5104D2B681BB1EA
:1073600000260F4B1C6804B970BD94F82C3093B103
:107370001AF0CCFB2B6884F82C60013B2B601AF0D0
:10738000CBFB94F82D3013B92046FFF715FFD4E955
:10739000083120469847A46AE5E700BFB4220020E0
:1073A000B0220020034B1B68002B14BF04200120D7
:1073B000704700BFB4220020024B1868B0FA80F07A
:1073C00040097047B4220020184B37B583422AD1B8
:1073D000174B1B783BB3C8B208F026FF054610B325
:1073E000144C1549206819F0E9FD1449206819F07A
:1073F000E5FD22F072FE22F071FE114B114A00935E
:1074000011498523206819F0D9FD10492B46104AEF
:10741000206819F0D3FD284617F09EFE0D4920681C
:1074200019F0CCFDFEE703B030BD00BFB82200204C
:10743000B42F0020C82E002093B0030880AF0308AB
:1074400026B0030885AF0308F1AF030800B00308B6
:10745000FDAF030815B0030830B500250368584A8E
:1074600023F47F4323F0070385B09342044602953B
:10747000ADF80C507ED002F5802293420ED0A2F1DE
:107480008272934240F09A804E4B1B78002B00F0A2
:10749000958005B0BDE8304019F04FBCB0F805301C
:1074A0001B2B40F08B80FF2304A91A4611E903002F
:1074B0001AF0A5FB012814BF41F2FC15414B05F061
:1074C000FC0208BF18701B21207908F0D5FE054684
:1074D00010B33D4C3D49206819F070FD3C492068CF
:1074E00019F06CFD22F0F9FD22F0F8FD394B3A4A13
:1074F00000933A495923206819F060FD38492B461A
:10750000384A206819F05AFD284617F025FE3649FA
:10751000206819F053FDFEE7344900902379344A7E
:1075200009683448FFF77AFE0546002846D0264C05
:107530002649206819F042FD2549206819F03EFDD2
:1075400022F0CBFD22F0CAFD224B234A00932349AF
:107550006223206819F032FD21492B46214A206818
:1075600019F02CFD284617F0F7FD1F49206819F087
:1075700025FDFEE7B0F80530B7EE047A07EE903A45
:10758000F8EE677AB0F8073067EE877A013307EED6
:10759000103AB8EEC77A67EE877AB1EE047A67EEF2
:1075A000877AFAFE677AFCEEE77A17EE903AB3F53F
:1075B0007A7F38BF4FF47A730C4A136005B030BD40
:1075C000A0000602B42F0020C82E002093B00308AC
:1075D00080AF030835B0030885AF0308F1AF030897
:1075E00000B00308FDAF030815B00308080B002026
:1075F000C9730108B822002038B50E4C012008F0EC
:107600006BFD236803200133236017F05FFD78B121
:10761000094D0A49286819F0D1FC22F05EFD22F0DC
:107620005DFD226828680649BDE8384019F0C6BCEF
:1076300038BD00BF10230020C82E002055B003081D
:107640005AB00308012337B5184604220021FFF77A
:1076500059FB00234FF40041CDE90033174A184885
:1076600019F0EFFB0446032017F030FD68B1154D0B
:107670001549286819F0A2FC22F02FFD22F02EFDFA
:1076800022461249286819F099FCA4B1032017F08A
:107690001DFD60B10B4C0C49206819F08FFC22F0E5
:1076A0001CFD22F01BFD0A49206819F087FC4FF0F1
:1076B000FF3003B030BD0120FBE700BFF9750108C2
:1076C000F0220020C82E002055B0030879B003082E
:1076D00095B0030810B5234CFEF742FFFFF73EF9C3
:1076E000236F23F0070343F0030323671AF0F2F933
:1076F0001D4B00209B6A9B075EBF01221B4B9A62B9
:10770000D4F8203123F0030343F00203C4F82031FE
:10771000D4F8243123F0070343F00203C4F82431E2
:10772000D4F8403123F0030343F00203C4F840319E
:10773000D4F8603123F0030343F00203C4F860314E
:10774000D4F8403223F0030343F00203C4F840327C
:10775000D4F8003223F0070343F00203C4F80032E8
:1077600010BD00BF0080005000C0005000E000507D
:107770007FB50368944A23F47F4323F007039342C1
:1077800000F0BF8002F1FD7202F58032934200F0FA
:107790000C8102F17D42934240F0148100238B4D15
:1077A000ADF80E30284608F0BBFC064610B3884CF6
:1077B0008849206819F002FC8749206819F0FEFB0F
:1077C00022F08BFC22F08AFC844B854A0093854989
:1077D0005B23206819F0F2FB83493346834A206813
:1077E00019F0ECFB304617F0B7FC8149206819F01E
:1077F000E5FBFEE70221287808F0EEFC044610B312
:10780000734D7449286819F0D9FB7349286819F039
:10781000D5FB22F062FC22F061FC704B704A0093B1
:1078200070496023286819F0C9FB6F4923466F4AE5
:10783000286819F0C3FB204617F08EFC6C492868B5
:1078400019F0BCFBFEE701460DF10E02287808F0A6
:10785000A1FC4FF4C862009423461146287808F032
:1078600077FC064610B35A4C5A49206819F0A6FB1B
:107870005949206819F0A2FB22F02FFC22F02EFCBF
:10788000564B574A009357496B23206819F096FBD3
:1078900055493346554A206819F090FB304617F099
:1078A0005BFC5349206819F089FBFEE72878022128
:1078B00008F0A6FC0546002800F08480444C4549A9
:1078C000206819F07BFB4449206819F077FB22F00F
:1078D00004FC22F003FC414B414A009341496F23D1
:1078E000206819F06BFB40492B46404A206819F08C
:1078F00065FB284617F030FC3D49206819F05EFB17
:10790000FEE7324C0221207808F066FC054610B3F1
:107910002F4C3049206819F051FB2F49206819F08D
:107920004DFB22F0DAFB22F0D9FB2C4B2C4A0093C2
:107930002C497D23206819F041FB2B492B462B4A0B
:10794000206819F03BFB284617F006FC2849206800
:1079500019F034FBFEE70221207808F051FC0546BF
:1079600000282FD01A4C1B49206819F027FB1A4910
:10797000206819F023FB22F0B0FB22F0AFFB174B7D
:10798000174A009317498223206819F017FB1649FC
:107990002B46164A206819F011FB284617F0DCFB2D
:1079A0001349206819F00AFBFEE74268012A09D151
:1079B00010490B6801330B60DB0755BF0E4B0F4BB3
:1079C0001B6F1A6704B070BDA0000601E00C002018
:1079D000C82E002093B0030880AF0308DDB203086F
:1079E000D4B20308F1AF030800B00308FDAF0308E9
:1079F00015B003081423002000C0035000E003501A
:107A000008B519F0A7F91AF09EF9032017F05EFBEC
:107A100068B10A4C0A49206819F0D0FA22F05DFBDF
:107A200022F05CFB074A0849206819F0C7FA19F0F0
:107A30009EF91AF091F9FBF743FFF8E7C82E0020F2
:107A400055B00308ECB2030804B3030830B503686B
:107A5000514A23F47F4323F00703934289B040F057
:107A600098800522002116204C4B08F0EFFB0546BC
:107A700010B34B4C4B49206819F0A0FA4A492068D2
:107A800019F09CFA22F029FB22F028FB474B484AC8
:107A9000009348495923206819F090FA46492B462B
:107AA000464A206819F08AFA284617F055FB4449DF
:107AB000206819F083FAFEE70DF10F0104A808F021
:107AC000F3FB044610B3364D3649286819F076FAB0
:107AD0003549286819F072FA22F0FFFA22F0FEFA0E
